{
  "_format": "hh-sol-artifact-1",
  "contractName": "Invasion",
  "sourceName": "contracts/Invasion.sol",
  "abi": [
    {
      "inputs": [
        {
          "internalType": "string[]",
          "name": "characterNames",
          "type": "string[]"
        },
        {
          "internalType": "string[]",
          "name": "characterImageURIs",
          "type": "string[]"
        },
        {
          "internalType": "uint256[]",
          "name": "characterHp",
          "type": "uint256[]"
        },
        {
          "internalType": "uint256[]",
          "name": "characterAttackDmg",
          "type": "uint256[]"
        },
        {
          "internalType": "string",
          "name": "invadorName",
          "type": "string"
        },
        {
          "internalType": "string",
          "name": "invadorImageURI",
          "type": "string"
        },
        {
          "internalType": "uint256",
          "name": "invadorHp",
          "type": "uint256"
        },
        {
          "internalType": "uint256",
          "name": "invadorAttackDamage",
          "type": "uint256"
        }
      ],
      "stateMutability": "nonpayable",
      "type": "constructor"
    },
    {
      "anonymous": false,
      "inputs": [
        {
          "indexed": true,
          "internalType": "address",
          "name": "owner",
          "type": "address"
        },
        {
          "indexed": true,
          "internalType": "address",
          "name": "approved",
          "type": "address"
        },
        {
          "indexed": true,
          "internalType": "uint256",
          "name": "tokenId",
          "type": "uint256"
        }
      ],
      "name": "Approval",
      "type": "event"
    },
    {
      "anonymous": false,
      "inputs": [
        {
          "indexed": true,
          "internalType": "address",
          "name": "owner",
          "type": "address"
        },
        {
          "indexed": true,
          "internalType": "address",
          "name": "operator",
          "type": "address"
        },
        {
          "indexed": false,
          "internalType": "bool",
          "name": "approved",
          "type": "bool"
        }
      ],
      "name": "ApprovalForAll",
      "type": "event"
    },
    {
      "anonymous": false,
      "inputs": [
        {
          "indexed": false,
          "internalType": "uint256",
          "name": "newInvadorHp",
          "type": "uint256"
        },
        {
          "indexed": false,
          "internalType": "uint256",
          "name": "newPlayerHp",
          "type": "uint256"
        }
      ],
      "name": "AttackComplete",
      "type": "event"
    },
    {
      "anonymous": false,
      "inputs": [
        {
          "indexed": false,
          "internalType": "address",
          "name": "sender",
          "type": "address"
        },
        {
          "indexed": false,
          "internalType": "uint256",
          "name": "tokenId",
          "type": "uint256"
        },
        {
          "indexed": false,
          "internalType": "uint256",
          "name": "characterIndex",
          "type": "uint256"
        }
      ],
      "name": "CharacterNFTMinted",
      "type": "event"
    },
    {
      "anonymous": false,
      "inputs": [
        {
          "indexed": true,
          "internalType": "address",
          "name": "from",
          "type": "address"
        },
        {
          "indexed": true,
          "internalType": "address",
          "name": "to",
          "type": "address"
        },
        {
          "indexed": true,
          "internalType": "uint256",
          "name": "tokenId",
          "type": "uint256"
        }
      ],
      "name": "Transfer",
      "type": "event"
    },
    {
      "inputs": [
        {
          "internalType": "address",
          "name": "to",
          "type": "address"
        },
        {
          "internalType": "uint256",
          "name": "tokenId",
          "type": "uint256"
        }
      ],
      "name": "approve",
      "outputs": [],
      "stateMutability": "nonpayable",
      "type": "function"
    },
    {
      "inputs": [],
      "name": "attackInvador",
      "outputs": [],
      "stateMutability": "nonpayable",
      "type": "function"
    },
    {
      "inputs": [
        {
          "internalType": "address",
          "name": "owner",
          "type": "address"
        }
      ],
      "name": "balanceOf",
      "outputs": [
        {
          "internalType": "uint256",
          "name": "",
          "type": "uint256"
        }
      ],
      "stateMutability": "view",
      "type": "function"
    },
    {
      "inputs": [],
      "name": "checkIfUserHasNFT",
      "outputs": [
        {
          "components": [
            {
              "internalType": "uint256",
              "name": "characterIndex",
              "type": "uint256"
            },
            {
              "internalType": "string",
              "name": "name",
              "type": "string"
            },
            {
              "internalType": "string",
              "name": "imageURI",
              "type": "string"
            },
            {
              "internalType": "uint256",
              "name": "hp",
              "type": "uint256"
            },
            {
              "internalType": "uint256",
              "name": "maxHp",
              "type": "uint256"
            },
            {
              "internalType": "uint256",
              "name": "attackDamage",
              "type": "uint256"
            }
          ],
          "internalType": "struct CharacterAttributes",
          "name": "",
          "type": "tuple"
        }
      ],
      "stateMutability": "view",
      "type": "function"
    },
    {
      "inputs": [
        {
          "internalType": "uint256",
          "name": "tokenId",
          "type": "uint256"
        }
      ],
      "name": "getApproved",
      "outputs": [
        {
          "internalType": "address",
          "name": "",
          "type": "address"
        }
      ],
      "stateMutability": "view",
      "type": "function"
    },
    {
      "inputs": [],
      "name": "getDefaultCharacters",
      "outputs": [
        {
          "components": [
            {
              "internalType": "uint256",
              "name": "characterIndex",
              "type": "uint256"
            },
            {
              "internalType": "string",
              "name": "name",
              "type": "string"
            },
            {
              "internalType": "string",
              "name": "imageURI",
              "type": "string"
            },
            {
              "internalType": "uint256",
              "name": "hp",
              "type": "uint256"
            },
            {
              "internalType": "uint256",
              "name": "maxHp",
              "type": "uint256"
            },
            {
              "internalType": "uint256",
              "name": "attackDamage",
              "type": "uint256"
            }
          ],
          "internalType": "struct CharacterAttributes[]",
          "name": "",
          "type": "tuple[]"
        }
      ],
      "stateMutability": "view",
      "type": "function"
    },
    {
      "inputs": [],
      "name": "getInvador",
      "outputs": [
        {
          "components": [
            {
              "internalType": "string",
              "name": "name",
              "type": "string"
            },
            {
              "internalType": "string",
              "name": "imageURI",
              "type": "string"
            },
            {
              "internalType": "uint256",
              "name": "hp",
              "type": "uint256"
            },
            {
              "internalType": "uint256",
              "name": "maxHp",
              "type": "uint256"
            },
            {
              "internalType": "uint256",
              "name": "attackDamage",
              "type": "uint256"
            }
          ],
          "internalType": "struct Invador",
          "name": "",
          "type": "tuple"
        }
      ],
      "stateMutability": "view",
      "type": "function"
    },
    {
      "inputs": [],
      "name": "invador",
      "outputs": [
        {
          "internalType": "string",
          "name": "name",
          "type": "string"
        },
        {
          "internalType": "string",
          "name": "imageURI",
          "type": "string"
        },
        {
          "internalType": "uint256",
          "name": "hp",
          "type": "uint256"
        },
        {
          "internalType": "uint256",
          "name": "maxHp",
          "type": "uint256"
        },
        {
          "internalType": "uint256",
          "name": "attackDamage",
          "type": "uint256"
        }
      ],
      "stateMutability": "view",
      "type": "function"
    },
    {
      "inputs": [
        {
          "internalType": "address",
          "name": "owner",
          "type": "address"
        },
        {
          "internalType": "address",
          "name": "operator",
          "type": "address"
        }
      ],
      "name": "isApprovedForAll",
      "outputs": [
        {
          "internalType": "bool",
          "name": "",
          "type": "bool"
        }
      ],
      "stateMutability": "view",
      "type": "function"
    },
    {
      "inputs": [
        {
          "internalType": "uint256",
          "name": "_characterIndex",
          "type": "uint256"
        }
      ],
      "name": "mintCharacterNFT",
      "outputs": [],
      "stateMutability": "nonpayable",
      "type": "function"
    },
    {
      "inputs": [],
      "name": "name",
      "outputs": [
        {
          "internalType": "string",
          "name": "",
          "type": "string"
        }
      ],
      "stateMutability": "view",
      "type": "function"
    },
    {
      "inputs": [
        {
          "internalType": "uint256",
          "name": "",
          "type": "uint256"
        }
      ],
      "name": "nftHolderAttributes",
      "outputs": [
        {
          "internalType": "uint256",
          "name": "characterIndex",
          "type": "uint256"
        },
        {
          "internalType": "string",
          "name": "name",
          "type": "string"
        },
        {
          "internalType": "string",
          "name": "imageURI",
          "type": "string"
        },
        {
          "internalType": "uint256",
          "name": "hp",
          "type": "uint256"
        },
        {
          "internalType": "uint256",
          "name": "maxHp",
          "type": "uint256"
        },
        {
          "internalType": "uint256",
          "name": "attackDamage",
          "type": "uint256"
        }
      ],
      "stateMutability": "view",
      "type": "function"
    },
    {
      "inputs": [
        {
          "internalType": "address",
          "name": "",
          "type": "address"
        }
      ],
      "name": "nftHolders",
      "outputs": [
        {
          "internalType": "uint256",
          "name": "",
          "type": "uint256"
        }
      ],
      "stateMutability": "view",
      "type": "function"
    },
    {
      "inputs": [
        {
          "internalType": "uint256",
          "name": "tokenId",
          "type": "uint256"
        }
      ],
      "name": "ownerOf",
      "outputs": [
        {
          "internalType": "address",
          "name": "",
          "type": "address"
        }
      ],
      "stateMutability": "view",
      "type": "function"
    },
    {
      "inputs": [
        {
          "internalType": "address",
          "name": "from",
          "type": "address"
        },
        {
          "internalType": "address",
          "name": "to",
          "type": "address"
        },
        {
          "internalType": "uint256",
          "name": "tokenId",
          "type": "uint256"
        }
      ],
      "name": "safeTransferFrom",
      "outputs": [],
      "stateMutability": "nonpayable",
      "type": "function"
    },
    {
      "inputs": [
        {
          "internalType": "address",
          "name": "from",
          "type": "address"
        },
        {
          "internalType": "address",
          "name": "to",
          "type": "address"
        },
        {
          "internalType": "uint256",
          "name": "tokenId",
          "type": "uint256"
        },
        {
          "internalType": "bytes",
          "name": "_data",
          "type": "bytes"
        }
      ],
      "name": "safeTransferFrom",
      "outputs": [],
      "stateMutability": "nonpayable",
      "type": "function"
    },
    {
      "inputs": [
        {
          "internalType": "address",
          "name": "operator",
          "type": "address"
        },
        {
          "internalType": "bool",
          "name": "approved",
          "type": "bool"
        }
      ],
      "name": "setApprovalForAll",
      "outputs": [],
      "stateMutability": "nonpayable",
      "type": "function"
    },
    {
      "inputs": [
        {
          "internalType": "bytes4",
          "name": "interfaceId",
          "type": "bytes4"
        }
      ],
      "name": "supportsInterface",
      "outputs": [
        {
          "internalType": "bool",
          "name": "",
          "type": "bool"
        }
      ],
      "stateMutability": "view",
      "type": "function"
    },
    {
      "inputs": [],
      "name": "symbol",
      "outputs": [
        {
          "internalType": "string",
          "name": "",
          "type": "string"
        }
      ],
      "stateMutability": "view",
      "type": "function"
    },
    {
      "inputs": [
        {
          "internalType": "uint256",
          "name": "_tokenId",
          "type": "uint256"
        }
      ],
      "name": "tokenURI",
      "outputs": [
        {
          "internalType": "string",
          "name": "",
          "type": "string"
        }
      ],
      "stateMutability": "view",
      "type": "function"
    },
    {
      "inputs": [
        {
          "internalType": "address",
          "name": "from",
          "type": "address"
        },
        {
          "internalType": "address",
          "name": "to",
          "type": "address"
        },
        {
          "internalType": "uint256",
          "name": "tokenId",
          "type": "uint256"
        }
      ],
      "name": "transferFrom",
      "outputs": [],
      "stateMutability": "nonpayable",
      "type": "function"
    }
  ],
  "bytecode": "0x60806040523480156200001157600080fd5b50604051620055ed380380620055ed833981810160405281019062000037919062000b6f565b6040518060400160405280600681526020017f4865726f657300000000000000000000000000000000000000000000000000008152506040518060400160405280600481526020017f4845524f000000000000000000000000000000000000000000000000000000008152508160009080519060200190620000bb92919062000715565b508060019080519060200190620000d492919062000715565b50505060005b88518110156200041b5760076040518060c001604052808381526020018b84815181106200010d576200010c62000cf2565b5b602002602001015181526020018a848151811062000130576200012f62000cf2565b5b6020026020010151815260200189848151811062000153576200015262000cf2565b5b6020026020010151815260200189848151811062000176576200017562000cf2565b5b6020026020010151815260200188848151811062000199576200019862000cf2565b5b60200260200101518152509080600181540180825580915050600190039060005260206000209060060201600090919091909150600082015181600001556020820151816001019080519060200190620001f592919062000715565b5060408201518160020190805190602001906200021492919062000715565b50606082015181600301556080820151816004015560a0820151816005015550506000600782815481106200024e576200024d62000cf2565b5b90600052602060002090600602016040518060c001604052908160008201548152602001600182018054620002839062000d50565b80601f0160208091040260200160405190810160405280929190818152602001828054620002b19062000d50565b8015620003025780601f10620002d65761010080835404028352916020019162000302565b820191906000526020600020905b815481529060010190602001808311620002e457829003601f168201915b505050505081526020016002820180546200031d9062000d50565b80601f01602080910402602001604051908101604052809291908181526020018280546200034b9062000d50565b80156200039c5780601f1062000370576101008083540402835291602001916200039c565b820191906000526020600020905b8154815290600101906020018083116200037e57829003601f168201915b5050505050815260200160038201548152602001600482015481526020016005820154815250509050620004036040518060600160405280602581526020016200559b602591398260200151836060015184604001516200062a60201b62001aca1760201c565b5060018162000413919062000db5565b9050620000da565b506040518060a0016040528085815260200184815260200183815260200183815260200182815250600a60008201518160000190805190602001906200046392919062000715565b5060208201518160010190805190602001906200048292919062000715565b50604082015181600201556060820151816003015560808201518160040155905050620006056040518060600160405280602d8152602001620055c0602d9139600a6000018054620004d49062000d50565b80601f0160208091040260200160405190810160405280929190818152602001828054620005029062000d50565b8015620005535780601f10620005275761010080835404028352916020019162000553565b820191906000526020600020905b8154815290600101906020018083116200053557829003601f168201915b5050505050600a60020154600a6001018054620005709062000d50565b80601f01602080910402602001604051908101604052809291908181526020018280546200059e9062000d50565b8015620005ef5780601f10620005c357610100808354040283529160200191620005ef565b820191906000526020600020905b815481529060010190602001808311620005d157829003601f168201915b50505050506200062a60201b62001aca1760201c565b6200061c6006620006d660201b62001b6c1760201c565b505050505050505062000ee2565b620006d08484848460405160240162000647949392919062000e80565b6040516020818303038152906040527f8d142cdd000000000000000000000000000000000000000000000000000000007bffffffffffffffffffffffffffffffffffffffffffffffffffffffff19166020820180517bffffffffffffffffffffffffffffffffffffffffffffffffffffffff8381831617835250505050620006ec60201b60201c565b50505050565b6001816000016000828254019250508190555050565b60008151905060006a636f6e736f6c652e6c6f679050602083016000808483855afa5050505050565b828054620007239062000d50565b90600052602060002090601f01602090048101928262000747576000855562000793565b82601f106200076257805160ff191683800117855562000793565b8280016001018555821562000793579182015b828111156200079257825182559160200191906001019062000775565b5b509050620007a29190620007a6565b5090565b5b80821115620007c1576000816000905550600101620007a7565b5090565b6000604051905090565b600080fd5b600080fd5b600080fd5b6000601f19601f8301169050919050565b7f4e487b7100000000000000000000000000000000000000000000000000000000600052604160045260246000fd5b6200082982620007de565b810181811067ffffffffffffffff821117156200084b576200084a620007ef565b5b80604052505050565b600062000860620007c5565b90506200086e82826200081e565b919050565b600067ffffffffffffffff821115620008915762000890620007ef565b5b602082029050602081019050919050565b600080fd5b600080fd5b600067ffffffffffffffff821115620008ca57620008c9620007ef565b5b620008d582620007de565b9050602081019050919050565b60005b8381101562000902578082015181840152602081019050620008e5565b8381111562000912576000848401525b50505050565b60006200092f6200092984620008ac565b62000854565b9050828152602081018484840111156200094e576200094d620008a7565b5b6200095b848285620008e2565b509392505050565b600082601f8301126200097b576200097a620007d9565b5b81516200098d84826020860162000918565b91505092915050565b6000620009ad620009a78462000873565b62000854565b90508083825260208201905060208402830185811115620009d357620009d2620008a2565b5b835b8181101562000a2157805167ffffffffffffffff811115620009fc57620009fb620007d9565b5b80860162000a0b898262000963565b85526020850194505050602081019050620009d5565b5050509392505050565b600082601f83011262000a435762000a42620007d9565b5b815162000a5584826020860162000996565b91505092915050565b600067ffffffffffffffff82111562000a7c5762000a7b620007ef565b5b602082029050602081019050919050565b6000819050919050565b62000aa28162000a8d565b811462000aae57600080fd5b50565b60008151905062000ac28162000a97565b92915050565b600062000adf62000ad98462000a5e565b62000854565b9050808382526020820190506020840283018581111562000b055762000b04620008a2565b5b835b8181101562000b32578062000b1d888262000ab1565b84526020840193505060208101905062000b07565b5050509392505050565b600082601f83011262000b545762000b53620007d9565b5b815162000b6684826020860162000ac8565b91505092915050565b600080600080600080600080610100898b03121562000b935762000b92620007cf565b5b600089015167ffffffffffffffff81111562000bb45762000bb3620007d4565b5b62000bc28b828c0162000a2b565b985050602089015167ffffffffffffffff81111562000be65762000be5620007d4565b5b62000bf48b828c0162000a2b565b975050604089015167ffffffffffffffff81111562000c185762000c17620007d4565b5b62000c268b828c0162000b3c565b965050606089015167ffffffffffffffff81111562000c4a5762000c49620007d4565b5b62000c588b828c0162000b3c565b955050608089015167ffffffffffffffff81111562000c7c5762000c7b620007d4565b5b62000c8a8b828c0162000963565b94505060a089015167ffffffffffffffff81111562000cae5762000cad620007d4565b5b62000cbc8b828c0162000963565b93505060c062000ccf8b828c0162000ab1565b92505060e062000ce28b828c0162000ab1565b9150509295985092959890939650565b7f4e487b7100000000000000000000000000000000000000000000000000000000600052603260045260246000fd5b7f4e487b7100000000000000000000000000000000000000000000000000000000600052602260045260246000fd5b6000600282049050600182168062000d6957607f821691505b6020821081141562000d805762000d7f62000d21565b5b50919050565b7f4e487b7100000000000000000000000000000000000000000000000000000000600052601160045260246000fd5b600062000dc28262000a8d565b915062000dcf8362000a8d565b9250827fffffffffffffffffffffffffffffffffffffffffffffffffffffffffffffffff0382111562000e075762000e0662000d86565b5b828201905092915050565b600081519050919050565b600082825260208201905092915050565b600062000e3b8262000e12565b62000e47818562000e1d565b935062000e59818560208601620008e2565b62000e6481620007de565b840191505092915050565b62000e7a8162000a8d565b82525050565b6000608082019050818103600083015262000e9c818762000e2e565b9050818103602083015262000eb2818662000e2e565b905062000ec3604083018562000e6f565b818103606083015262000ed7818462000e2e565b905095945050505050565b6146a98062000ef26000396000f3fe608060405234801561001057600080fd5b50600436106101375760003560e01c806387a36c7b116100b8578063b88d4fde1161007c578063b88d4fde14610353578063c87b56dd1461036f578063c8cf27f41461039f578063cdd07f89146103bd578063e985e9c5146103df578063f8b81ef71461040f57610137565b806387a36c7b146102bc57806395d89b41146102da57806398da4c95146102f8578063a22cb4651461032d578063a496c1501461034957610137565b806342842e0e116100ff57806342842e0e146101f25780636352211e1461020e57806370a082311461023e57806374bce80a1461026e5780637df124a11461028c57610137565b806301ffc9a71461013c57806306fdde031461016c578063081812fc1461018a578063095ea7b3146101ba57806323b872dd146101d6575b600080fd5b61015660048036038101906101519190612be8565b61042b565b6040516101639190612c30565b60405180910390f35b61017461050d565b6040516101819190612ce4565b60405180910390f35b6101a4600480360381019061019f9190612d3c565b61059f565b6040516101b19190612daa565b60405180910390f35b6101d460048036038101906101cf9190612df1565b610624565b005b6101f060048036038101906101eb9190612e31565b61073c565b005b61020c60048036038101906102079190612e31565b61079c565b005b61022860048036038101906102239190612d3c565b6107bc565b6040516102359190612daa565b60405180910390f35b61025860048036038101906102539190612e84565b61086e565b6040516102659190612ec0565b60405180910390f35b610276610926565b6040516102839190613086565b60405180910390f35b6102a660048036038101906102a19190612e84565b610ad1565b6040516102b39190612ec0565b60405180910390f35b6102c4610ae9565b6040516102d19190613125565b60405180910390f35b6102e2610c45565b6040516102ef9190612ce4565b60405180910390f35b610312600480360381019061030d9190612d3c565b610cd7565b60405161032496959493929190613147565b60405180910390f35b610347600480360381019061034291906131e2565b610e23565b005b610351610e39565b005b61036d60048036038101906103689190613357565b611177565b005b61038960048036038101906103849190612d3c565b6111d9565b6040516103969190612ce4565b60405180910390f35b6103a76113f4565b6040516103b4919061346a565b60405180910390f35b6103c56115cc565b6040516103d695949392919061348c565b60405180910390f35b6103f960048036038101906103f491906134ed565b611700565b6040516104069190612c30565b60405180910390f35b61042960048036038101906104249190612d3c565b611794565b005b60007f80ac58cd000000000000000000000000000000000000000000000000000000007bffffffffffffffffffffffffffffffffffffffffffffffffffffffff1916827bffffffffffffffffffffffffffffffffffffffffffffffffffffffff191614806104f657507f5b5e139f000000000000000000000000000000000000000000000000000000007bffffffffffffffffffffffffffffffffffffffffffffffffffffffff1916827bffffffffffffffffffffffffffffffffffffffffffffffffffffffff1916145b80610506575061050582611b82565b5b9050919050565b60606000805461051c9061355c565b80601f01602080910402602001604051908101604052809291908181526020018280546105489061355c565b80156105955780601f1061056a57610100808354040283529160200191610595565b820191906000526020600020905b81548152906001019060200180831161057857829003601f168201915b5050505050905090565b60006105aa82611bec565b6105e9576040517f08c379a00000000000000000000000000000000000000000000000000000000081526004016105e090613600565b60405180910390fd5b6004600083815260200190815260200160002060009054906101000a900473ffffffffffffffffffffffffffffffffffffffff169050919050565b600061062f826107bc565b90508073ffffffffffffffffffffffffffffffffffffffff168373ffffffffffffffffffffffffffffffffffffffff1614156106a0576040517f08c379a000000000000000000000000000000000000000000000000000000000815260040161069790613692565b60405180910390fd5b8073ffffffffffffffffffffffffffffffffffffffff166106bf611c58565b73ffffffffffffffffffffffffffffffffffffffff1614806106ee57506106ed816106e8611c58565b611700565b5b61072d576040517f08c379a000000000000000000000000000000000000000000000000000000000815260040161072490613724565b60405180910390fd5b6107378383611c60565b505050565b61074d610747611c58565b82611d19565b61078c576040517f08c379a0000000000000000000000000000000000000000000000000000000008152600401610783906137b6565b60405180910390fd5b610797838383611df7565b505050565b6107b783838360405180602001604052806000815250611177565b505050565b6000806002600084815260200190815260200160002060009054906101000a900473ffffffffffffffffffffffffffffffffffffffff169050600073ffffffffffffffffffffffffffffffffffffffff168173ffffffffffffffffffffffffffffffffffffffff161415610865576040517f08c379a000000000000000000000000000000000000000000000000000000000815260040161085c90613848565b60405180910390fd5b80915050919050565b60008073ffffffffffffffffffffffffffffffffffffffff168273ffffffffffffffffffffffffffffffffffffffff1614156108df576040517f08c379a00000000000000000000000000000000000000000000000000000000081526004016108d6906138da565b60405180910390fd5b600360008373ffffffffffffffffffffffffffffffffffffffff1673ffffffffffffffffffffffffffffffffffffffff168152602001908152602001600020549050919050565b60606007805480602002602001604051908101604052809291908181526020016000905b82821015610ac857838290600052602060002090600602016040518060c0016040529081600082015481526020016001820180546109879061355c565b80601f01602080910402602001604051908101604052809291908181526020018280546109b39061355c565b8015610a005780601f106109d557610100808354040283529160200191610a00565b820191906000526020600020905b8154815290600101906020018083116109e357829003601f168201915b50505050508152602001600282018054610a199061355c565b80601f0160208091040260200160405190810160405280929190818152602001828054610a459061355c565b8015610a925780601f10610a6757610100808354040283529160200191610a92565b820191906000526020600020905b815481529060010190602001808311610a7557829003601f168201915b5050505050815260200160038201548152602001600482015481526020016005820154815250508152602001906001019061094a565b50505050905090565b60096020528060005260406000206000915090505481565b610af1612a74565b600a6040518060a0016040529081600082018054610b0e9061355c565b80601f0160208091040260200160405190810160405280929190818152602001828054610b3a9061355c565b8015610b875780601f10610b5c57610100808354040283529160200191610b87565b820191906000526020600020905b815481529060010190602001808311610b6a57829003601f168201915b50505050508152602001600182018054610ba09061355c565b80601f0160208091040260200160405190810160405280929190818152602001828054610bcc9061355c565b8015610c195780601f10610bee57610100808354040283529160200191610c19565b820191906000526020600020905b815481529060010190602001808311610bfc57829003601f168201915b505050505081526020016002820154815260200160038201548152602001600482015481525050905090565b606060018054610c549061355c565b80601f0160208091040260200160405190810160405280929190818152602001828054610c809061355c565b8015610ccd5780601f10610ca257610100808354040283529160200191610ccd565b820191906000526020600020905b815481529060010190602001808311610cb057829003601f168201915b5050505050905090565b6008602052806000526040600020600091509050806000015490806001018054610d009061355c565b80601f0160208091040260200160405190810160405280929190818152602001828054610d2c9061355c565b8015610d795780601f10610d4e57610100808354040283529160200191610d79565b820191906000526020600020905b815481529060010190602001808311610d5c57829003601f168201915b505050505090806002018054610d8e9061355c565b80601f0160208091040260200160405190810160405280929190818152602001828054610dba9061355c565b8015610e075780601f10610ddc57610100808354040283529160200191610e07565b820191906000526020600020905b815481529060010190602001808311610dea57829003601f168201915b5050505050908060030154908060040154908060050154905086565b610e35610e2e611c58565b8383612053565b5050565b6000600960003373ffffffffffffffffffffffffffffffffffffffff1673ffffffffffffffffffffffffffffffffffffffff16815260200190815260200160002054905060006008600083815260200190815260200160002090506000816003015411610edb576040517f08c379a0000000000000000000000000000000000000000000000000000000008152600401610ed290613946565b60405180910390fd5b6000600a6002015411610f23576040517f08c379a0000000000000000000000000000000000000000000000000000000008152600401610f1a906139b2565b60405180910390fd5b600a6004015481600301541115610f5657600a600401548160030154610f499190613a01565b8160030181905550610f61565b600081600301819055505b8060050154600a600201541115610f95578060050154600a60020154610f879190613a01565b600a60020181905550610fa1565b6000600a600201819055505b6110596040518060600160405280603c8152602001614638603c9139826001018054610fcc9061355c565b80601f0160208091040260200160405190810160405280929190818152602001828054610ff89061355c565b80156110455780601f1061101a57610100808354040283529160200191611045565b820191906000526020600020905b81548152906001019060200180831161102857829003601f168201915b5050505050836003015484600501546121c0565b6111316040518060400160405280601e81526020017f496e7661646f722025732068617320257320485020616e642025732041440000815250600a60000180546110a29061355c565b80601f01602080910402602001604051908101604052809291908181526020018280546110ce9061355c565b801561111b5780601f106110f05761010080835404028352916020019161111b565b820191906000526020600020905b8154815290600101906020018083116110fe57829003601f168201915b5050505050600a60020154600a600401546121c0565b7f838ab28464562786a6c4ab2311964b82fa60bd9b14aa7e856af1f3f18d41a414600a60020154826003015460405161116b929190613a35565b60405180910390a15050565b611188611182611c58565b83611d19565b6111c7576040517f08c379a00000000000000000000000000000000000000000000000000000000081526004016111be906137b6565b60405180910390fd5b6111d384848484612262565b50505050565b60606000600860008481526020019081526020016000206040518060c0016040529081600082015481526020016001820180546112159061355c565b80601f01602080910402602001604051908101604052809291908181526020018280546112419061355c565b801561128e5780601f106112635761010080835404028352916020019161128e565b820191906000526020600020905b81548152906001019060200180831161127157829003601f168201915b505050505081526020016002820180546112a79061355c565b80601f01602080910402602001604051908101604052809291908181526020018280546112d39061355c565b80156113205780601f106112f557610100808354040283529160200191611320565b820191906000526020600020905b81548152906001019060200180831161130357829003601f168201915b5050505050815260200160038201548152602001600482015481526020016005820154815250509050600061135882606001516122be565b9050600061136983608001516122be565b9050600061137a8460a001516122be565b905060006113c0856020015161138f896122be565b87604001518787876040516020016113ac96959493929190613d6c565b60405160208183030381529060405261241f565b90506000816040516020016113d59190613e5d565b6040516020818303038152906040529050809650505050505050919050565b6113fc612aa3565b6000600960003373ffffffffffffffffffffffffffffffffffffffff1673ffffffffffffffffffffffffffffffffffffffff16815260200190815260200160002054905060008111156115bb57600860008281526020019081526020016000206040518060c0016040529081600082015481526020016001820180546114819061355c565b80601f01602080910402602001604051908101604052809291908181526020018280546114ad9061355c565b80156114fa5780601f106114cf576101008083540402835291602001916114fa565b820191906000526020600020905b8154815290600101906020018083116114dd57829003601f168201915b505050505081526020016002820180546115139061355c565b80601f016020809104026020016040519081016040528092919081815260200182805461153f9061355c565b801561158c5780601f106115615761010080835404028352916020019161158c565b820191906000526020600020905b81548152906001019060200180831161156f57829003601f168201915b5050505050815260200160038201548152602001600482015481526020016005820154815250509150506115c9565b6115c3612aa3565b80925050505b90565b600a8060000180546115dd9061355c565b80601f01602080910402602001604051908101604052809291908181526020018280546116099061355c565b80156116565780601f1061162b57610100808354040283529160200191611656565b820191906000526020600020905b81548152906001019060200180831161163957829003601f168201915b50505050509080600101805461166b9061355c565b80601f01602080910402602001604051908101604052809291908181526020018280546116979061355c565b80156116e45780601f106116b9576101008083540402835291602001916116e4565b820191906000526020600020905b8154815290600101906020018083116116c757829003601f168201915b5050505050908060020154908060030154908060040154905085565b6000600560008473ffffffffffffffffffffffffffffffffffffffff1673ffffffffffffffffffffffffffffffffffffffff16815260200190815260200160002060008373ffffffffffffffffffffffffffffffffffffffff1673ffffffffffffffffffffffffffffffffffffffff16815260200190815260200160002060009054906101000a900460ff16905092915050565b60006117a060066125b7565b90506117ac6006611b6c565b6117b633826125c5565b6040518060c00160405280838152602001600784815481106117db576117da613e7f565b5b906000526020600020906006020160010180546117f79061355c565b80601f01602080910402602001604051908101604052809291908181526020018280546118239061355c565b80156118705780601f1061184557610100808354040283529160200191611870565b820191906000526020600020905b81548152906001019060200180831161185357829003601f168201915b505050505081526020016007848154811061188e5761188d613e7f565b5b906000526020600020906006020160020180546118aa9061355c565b80601f01602080910402602001604051908101604052809291908181526020018280546118d69061355c565b80156119235780601f106118f857610100808354040283529160200191611923565b820191906000526020600020905b81548152906001019060200180831161190657829003601f168201915b505050505081526020016007848154811061194157611940613e7f565b5b90600052602060002090600602016003015481526020016007848154811061196c5761196b613e7f565b5b90600052602060002090600602016004015481526020016007848154811061199757611996613e7f565b5b906000526020600020906006020160050154815250600860008381526020019081526020016000206000820151816000015560208201518160010190805190602001906119e5929190612ad9565b506040820151816002019080519060200190611a02929190612ad9565b50606082015181600301556080820151816004015560a08201518160050155905050611a476040518060600160405280602e815260200161460a602e913982846125e3565b80600960003373ffffffffffffffffffffffffffffffffffffffff1673ffffffffffffffffffffffffffffffffffffffff168152602001908152602001600020819055507f4bc303fd457a97b4691b9af582ce71868a3d258638c8d4f8c60988a0f0bfb8cd338284604051611abe93929190613eae565b60405180910390a15050565b611b6684848484604051602401611ae49493929190613ee5565b6040516020818303038152906040527f8d142cdd000000000000000000000000000000000000000000000000000000007bffffffffffffffffffffffffffffffffffffffffffffffffffffffff19166020820180517bffffffffffffffffffffffffffffffffffffffffffffffffffffffff8381831617835250505050612682565b50505050565b6001816000016000828254019250508190555050565b60007f01ffc9a7000000000000000000000000000000000000000000000000000000007bffffffffffffffffffffffffffffffffffffffffffffffffffffffff1916827bffffffffffffffffffffffffffffffffffffffffffffffffffffffff1916149050919050565b60008073ffffffffffffffffffffffffffffffffffffffff166002600084815260200190815260200160002060009054906101000a900473ffffffffffffffffffffffffffffffffffffffff1673ffffffffffffffffffffffffffffffffffffffff1614159050919050565b600033905090565b816004600083815260200190815260200160002060006101000a81548173ffffffffffffffffffffffffffffffffffffffff021916908373ffffffffffffffffffffffffffffffffffffffff160217905550808273ffffffffffffffffffffffffffffffffffffffff16611cd3836107bc565b73ffffffffffffffffffffffffffffffffffffffff167f8c5be1e5ebec7d5bd14f71427d1e84f3dd0314c0f7b2291e5b200ac8c7c3b92560405160405180910390a45050565b6000611d2482611bec565b611d63576040517f08c379a0000000000000000000000000000000000000000000000000000000008152600401611d5a90613fb1565b60405180910390fd5b6000611d6e836107bc565b90508073ffffffffffffffffffffffffffffffffffffffff168473ffffffffffffffffffffffffffffffffffffffff161480611ddd57508373ffffffffffffffffffffffffffffffffffffffff16611dc58461059f565b73ffffffffffffffffffffffffffffffffffffffff16145b80611dee5750611ded8185611700565b5b91505092915050565b8273ffffffffffffffffffffffffffffffffffffffff16611e17826107bc565b73ffffffffffffffffffffffffffffffffffffffff1614611e6d576040517f08c379a0000000000000000000000000000000000000000000000000000000008152600401611e6490614043565b60405180910390fd5b600073ffffffffffffffffffffffffffffffffffffffff168273ffffffffffffffffffffffffffffffffffffffff161415611edd576040517f08c379a0000000000000000000000000000000000000000000000000000000008152600401611ed4906140d5565b60405180910390fd5b611ee88383836126ab565b611ef3600082611c60565b6001600360008573ffffffffffffffffffffffffffffffffffffffff1673ffffffffffffffffffffffffffffffffffffffff1681526020019081526020016000206000828254611f439190613a01565b925050819055506001600360008473ffffffffffffffffffffffffffffffffffffffff1673ffffffffffffffffffffffffffffffffffffffff1681526020019081526020016000206000828254611f9a91906140f5565b92505081905550816002600083815260200190815260200160002060006101000a81548173ffffffffffffffffffffffffffffffffffffffff021916908373ffffffffffffffffffffffffffffffffffffffff160217905550808273ffffffffffffffffffffffffffffffffffffffff168473ffffffffffffffffffffffffffffffffffffffff167fddf252ad1be2c89b69c2b068fc378daa952ba7f163c4a11628f55a4df523b3ef60405160405180910390a4505050565b8173ffffffffffffffffffffffffffffffffffffffff168373ffffffffffffffffffffffffffffffffffffffff1614156120c2576040517f08c379a00000000000000000000000000000000000000000000000000000000081526004016120b990614197565b60405180910390fd5b80600560008573ffffffffffffffffffffffffffffffffffffffff1673ffffffffffffffffffffffffffffffffffffffff16815260200190815260200160002060008473ffffffffffffffffffffffffffffffffffffffff1673ffffffffffffffffffffffffffffffffffffffff16815260200190815260200160002060006101000a81548160ff0219169083151502179055508173ffffffffffffffffffffffffffffffffffffffff168373ffffffffffffffffffffffffffffffffffffffff167f17307eab39ab6107e8899845ad3d59bd9653f200f220920489ca2b5937696c31836040516121b39190612c30565b60405180910390a3505050565b61225c848484846040516024016121da94939291906141b7565b6040516020818303038152906040527fd5cf17d0000000000000000000000000000000000000000000000000000000007bffffffffffffffffffffffffffffffffffffffffffffffffffffffff19166020820180517bffffffffffffffffffffffffffffffffffffffffffffffffffffffff8381831617835250505050612682565b50505050565b61226d848484611df7565b612279848484846126b0565b6122b8576040517f08c379a00000000000000000000000000000000000000000000000000000000081526004016122af9061427c565b60405180910390fd5b50505050565b60606000821415612306576040518060400160405280600181526020017f3000000000000000000000000000000000000000000000000000000000000000815250905061241a565b600082905060005b600082146123385780806123219061429c565b915050600a826123319190614314565b915061230e565b60008167ffffffffffffffff8111156123545761235361322c565b5b6040519080825280601f01601f1916602001820160405280156123865781602001600182028036833780820191505090505b5090505b600085146124135760018261239f9190613a01565b9150600a856123ae9190614345565b60306123ba91906140f5565b60f81b8183815181106123d0576123cf613e7f565b5b60200101907effffffffffffffffffffffffffffffffffffffffffffffffffffffffffffff1916908160001a905350600a8561240c9190614314565b945061238a565b8093505050505b919050565b6060600082519050600081141561244857604051806020016040528060008152509150506125b2565b6000600360028361245991906140f5565b6124639190614314565b600461246f9190614376565b9050600060208261248091906140f5565b67ffffffffffffffff8111156124995761249861322c565b5b6040519080825280601f01601f1916602001820160405280156124cb5781602001600182028036833780820191505090505b50905060006040518060600160405280604081526020016145ca604091399050600181016020830160005b8681101561256f5760038101905062ffffff818a015116603f8160121c168401518060081b905060ff603f83600c1c1686015116810190508060081b905060ff603f8360061c1686015116810190508060081b905060ff603f831686015116810190508060e01b905080845260048401935050506124f6565b5060038606600181146125895760028114612599576125a4565b613d3d60f01b60028303526125a4565b603d60f81b60018303525b508484525050819450505050505b919050565b600081600001549050919050565b6125df828260405180602001604052806000815250612838565b5050565b61267d8383836040516024016125fb939291906143d0565b6040516020818303038152906040527f969cdd03000000000000000000000000000000000000000000000000000000007bffffffffffffffffffffffffffffffffffffffffffffffffffffffff19166020820180517bffffffffffffffffffffffffffffffffffffffffffffffffffffffff8381831617835250505050612682565b505050565b60008151905060006a636f6e736f6c652e6c6f679050602083016000808483855afa5050505050565b505050565b60006126d18473ffffffffffffffffffffffffffffffffffffffff16612893565b1561282b578373ffffffffffffffffffffffffffffffffffffffff1663150b7a026126fa611c58565b8786866040518563ffffffff1660e01b815260040161271c9493929190614463565b6020604051808303816000875af192505050801561275857506040513d601f19601f8201168201806040525081019061275591906144c4565b60015b6127db573d8060008114612788576040519150601f19603f3d011682016040523d82523d6000602084013e61278d565b606091505b506000815114156127d3576040517f08c379a00000000000000000000000000000000000000000000000000000000081526004016127ca9061427c565b60405180910390fd5b805181602001fd5b63150b7a0260e01b7bffffffffffffffffffffffffffffffffffffffffffffffffffffffff1916817bffffffffffffffffffffffffffffffffffffffffffffffffffffffff191614915050612830565b600190505b949350505050565b61284283836128a6565b61284f60008484846126b0565b61288e576040517f08c379a00000000000000000000000000000000000000000000000000000000081526004016128859061427c565b60405180910390fd5b505050565b600080823b905060008111915050919050565b600073ffffffffffffffffffffffffffffffffffffffff168273ffffffffffffffffffffffffffffffffffffffff161415612916576040517f08c379a000000000000000000000000000000000000000000000000000000000815260040161290d9061453d565b60405180910390fd5b61291f81611bec565b1561295f576040517f08c379a0000000000000000000000000000000000000000000000000000000008152600401612956906145a9565b60405180910390fd5b61296b600083836126ab565b6001600360008473ffffffffffffffffffffffffffffffffffffffff1673ffffffffffffffffffffffffffffffffffffffff16815260200190815260200160002060008282546129bb91906140f5565b92505081905550816002600083815260200190815260200160002060006101000a81548173ffffffffffffffffffffffffffffffffffffffff021916908373ffffffffffffffffffffffffffffffffffffffff160217905550808273ffffffffffffffffffffffffffffffffffffffff16600073ffffffffffffffffffffffffffffffffffffffff167fddf252ad1be2c89b69c2b068fc378daa952ba7f163c4a11628f55a4df523b3ef60405160405180910390a45050565b6040518060a0016040528060608152602001606081526020016000815260200160008152602001600081525090565b6040518060c001604052806000815260200160608152602001606081526020016000815260200160008152602001600081525090565b828054612ae59061355c565b90600052602060002090601f016020900481019282612b075760008555612b4e565b82601f10612b2057805160ff1916838001178555612b4e565b82800160010185558215612b4e579182015b82811115612b4d578251825591602001919060010190612b32565b5b509050612b5b9190612b5f565b5090565b5b80821115612b78576000816000905550600101612b60565b5090565b6000604051905090565b600080fd5b600080fd5b60007fffffffff0000000000000000000000000000000000000000000000000000000082169050919050565b612bc581612b90565b8114612bd057600080fd5b50565b600081359050612be281612bbc565b92915050565b600060208284031215612bfe57612bfd612b86565b5b6000612c0c84828501612bd3565b91505092915050565b60008115159050919050565b612c2a81612c15565b82525050565b6000602082019050612c456000830184612c21565b92915050565b600081519050919050565b600082825260208201905092915050565b60005b83811015612c85578082015181840152602081019050612c6a565b83811115612c94576000848401525b50505050565b6000601f19601f8301169050919050565b6000612cb682612c4b565b612cc08185612c56565b9350612cd0818560208601612c67565b612cd981612c9a565b840191505092915050565b60006020820190508181036000830152612cfe8184612cab565b905092915050565b6000819050919050565b612d1981612d06565b8114612d2457600080fd5b50565b600081359050612d3681612d10565b92915050565b600060208284031215612d5257612d51612b86565b5b6000612d6084828501612d27565b91505092915050565b600073ffffffffffffffffffffffffffffffffffffffff82169050919050565b6000612d9482612d69565b9050919050565b612da481612d89565b82525050565b6000602082019050612dbf6000830184612d9b565b92915050565b612dce81612d89565b8114612dd957600080fd5b50565b600081359050612deb81612dc5565b92915050565b60008060408385031215612e0857612e07612b86565b5b6000612e1685828601612ddc565b9250506020612e2785828601612d27565b9150509250929050565b600080600060608486031215612e4a57612e49612b86565b5b6000612e5886828701612ddc565b9350506020612e6986828701612ddc565b9250506040612e7a86828701612d27565b9150509250925092565b600060208284031215612e9a57612e99612b86565b5b6000612ea884828501612ddc565b91505092915050565b612eba81612d06565b82525050565b6000602082019050612ed56000830184612eb1565b92915050565b600081519050919050565b600082825260208201905092915050565b6000819050602082019050919050565b612f1081612d06565b82525050565b600082825260208201905092915050565b6000612f3282612c4b565b612f3c8185612f16565b9350612f4c818560208601612c67565b612f5581612c9a565b840191505092915050565b600060c083016000830151612f786000860182612f07565b5060208301518482036020860152612f908282612f27565b91505060408301518482036040860152612faa8282612f27565b9150506060830151612fbf6060860182612f07565b506080830151612fd26080860182612f07565b5060a0830151612fe560a0860182612f07565b508091505092915050565b6000612ffc8383612f60565b905092915050565b6000602082019050919050565b600061301c82612edb565b6130268185612ee6565b93508360208202850161303885612ef7565b8060005b8581101561307457848403895281516130558582612ff0565b945061306083613004565b925060208a0199505060018101905061303c565b50829750879550505050505092915050565b600060208201905081810360008301526130a08184613011565b905092915050565b600060a08301600083015184820360008601526130c58282612f27565b915050602083015184820360208601526130df8282612f27565b91505060408301516130f46040860182612f07565b5060608301516131076060860182612f07565b50608083015161311a6080860182612f07565b508091505092915050565b6000602082019050818103600083015261313f81846130a8565b905092915050565b600060c08201905061315c6000830189612eb1565b818103602083015261316e8188612cab565b905081810360408301526131828187612cab565b90506131916060830186612eb1565b61319e6080830185612eb1565b6131ab60a0830184612eb1565b979650505050505050565b6131bf81612c15565b81146131ca57600080fd5b50565b6000813590506131dc816131b6565b92915050565b600080604083850312156131f9576131f8612b86565b5b600061320785828601612ddc565b9250506020613218858286016131cd565b9150509250929050565b600080fd5b600080fd5b7f4e487b7100000000000000000000000000000000000000000000000000000000600052604160045260246000fd5b61326482612c9a565b810181811067ffffffffffffffff821117156132835761328261322c565b5b80604052505050565b6000613296612b7c565b90506132a2828261325b565b919050565b600067ffffffffffffffff8211156132c2576132c161322c565b5b6132cb82612c9a565b9050602081019050919050565b82818337600083830152505050565b60006132fa6132f5846132a7565b61328c565b90508281526020810184848401111561331657613315613227565b5b6133218482856132d8565b509392505050565b600082601f83011261333e5761333d613222565b5b813561334e8482602086016132e7565b91505092915050565b6000806000806080858703121561337157613370612b86565b5b600061337f87828801612ddc565b945050602061339087828801612ddc565b93505060406133a187828801612d27565b925050606085013567ffffffffffffffff8111156133c2576133c1612b8b565b5b6133ce87828801613329565b91505092959194509250565b600060c0830160008301516133f26000860182612f07565b506020830151848203602086015261340a8282612f27565b915050604083015184820360408601526134248282612f27565b91505060608301516134396060860182612f07565b50608083015161344c6080860182612f07565b5060a083015161345f60a0860182612f07565b508091505092915050565b6000602082019050818103600083015261348481846133da565b905092915050565b600060a08201905081810360008301526134a68188612cab565b905081810360208301526134ba8187612cab565b90506134c96040830186612eb1565b6134d66060830185612eb1565b6134e36080830184612eb1565b9695505050505050565b6000806040838503121561350457613503612b86565b5b600061351285828601612ddc565b925050602061352385828601612ddc565b9150509250929050565b7f4e487b7100000000000000000000000000000000000000000000000000000000600052602260045260246000fd5b6000600282049050600182168061357457607f821691505b602082108114156135885761358761352d565b5b50919050565b7f4552433732313a20617070726f76656420717565727920666f72206e6f6e657860008201527f697374656e7420746f6b656e0000000000000000000000000000000000000000602082015250565b60006135ea602c83612c56565b91506135f58261358e565b604082019050919050565b60006020820190508181036000830152613619816135dd565b9050919050565b7f4552433732313a20617070726f76616c20746f2063757272656e74206f776e6560008201527f7200000000000000000000000000000000000000000000000000000000000000602082015250565b600061367c602183612c56565b915061368782613620565b604082019050919050565b600060208201905081810360008301526136ab8161366f565b9050919050565b7f4552433732313a20617070726f76652063616c6c6572206973206e6f74206f7760008201527f6e6572206e6f7220617070726f76656420666f7220616c6c0000000000000000602082015250565b600061370e603883612c56565b9150613719826136b2565b604082019050919050565b6000602082019050818103600083015261373d81613701565b9050919050565b7f4552433732313a207472616e736665722063616c6c6572206973206e6f74206f60008201527f776e6572206e6f7220617070726f766564000000000000000000000000000000602082015250565b60006137a0603183612c56565b91506137ab82613744565b604082019050919050565b600060208201905081810360008301526137cf81613793565b9050919050565b7f4552433732313a206f776e657220717565727920666f72206e6f6e657869737460008201527f656e7420746f6b656e0000000000000000000000000000000000000000000000602082015250565b6000613832602983612c56565b915061383d826137d6565b604082019050919050565b6000602082019050818103600083015261386181613825565b9050919050565b7f4552433732313a2062616c616e636520717565727920666f7220746865207a6560008201527f726f206164647265737300000000000000000000000000000000000000000000602082015250565b60006138c4602a83612c56565b91506138cf82613868565b604082019050919050565b600060208201905081810360008301526138f3816138b7565b9050919050565b7f506c617965722069732064656164210000000000000000000000000000000000600082015250565b6000613930600f83612c56565b915061393b826138fa565b602082019050919050565b6000602082019050818103600083015261395f81613923565b9050919050565b7f496e7661646f722077617320616c726561647920646566657465642100000000600082015250565b600061399c601c83612c56565b91506139a782613966565b602082019050919050565b600060208201905081810360008301526139cb8161398f565b9050919050565b7f4e487b7100000000000000000000000000000000000000000000000000000000600052601160045260246000fd5b6000613a0c82612d06565b9150613a1783612d06565b925082821015613a2a57613a296139d2565b5b828203905092915050565b6000604082019050613a4a6000830185612eb1565b613a576020830184612eb1565b9392505050565b600081905092915050565b7f7b226e616d65223a202200000000000000000000000000000000000000000000600082015250565b6000613a9f600a83613a5e565b9150613aaa82613a69565b600a82019050919050565b6000613ac082612c4b565b613aca8185613a5e565b9350613ada818560208601612c67565b80840191505092915050565b7f202d2d204e465420233a20000000000000000000000000000000000000000000600082015250565b6000613b1c600b83613a5e565b9150613b2782613ae6565b600b82019050919050565b7f222c20226465736372697074696f6e223a20225468697320697320616e204e4660008201527f54207468617420656d706f77657273207468652070656f706c65206f6620506c60208201527f616e657420456172746820746f20646566656e6420697421222c2022696d616760408201527f65223a2022000000000000000000000000000000000000000000000000000000606082015250565b6000613bda606583613a5e565b9150613be582613b32565b606582019050919050565b7f222c202261747472696275746573223a205b207b202274726169745f7479706560008201527f223a20224865616c746820506f696e7473222c202276616c7565223a20000000602082015250565b6000613c4c603d83613a5e565b9150613c5782613bf0565b603d82019050919050565b7f2c20226d61785f76616c7565223a000000000000000000000000000000000000600082015250565b6000613c98600e83613a5e565b9150613ca382613c62565b600e82019050919050565b7f7d2c207b202274726169745f74797065223a202241747461636b2044616d616760008201527f65222c202276616c7565223a2000000000000000000000000000000000000000602082015250565b6000613d0a602d83613a5e565b9150613d1582613cae565b602d82019050919050565b7f7d205d7d00000000000000000000000000000000000000000000000000000000600082015250565b6000613d56600483613a5e565b9150613d6182613d20565b600482019050919050565b6000613d7782613a92565b9150613d838289613ab5565b9150613d8e82613b0f565b9150613d9a8288613ab5565b9150613da582613bcd565b9150613db18287613ab5565b9150613dbc82613c3f565b9150613dc88286613ab5565b9150613dd382613c8b565b9150613ddf8285613ab5565b9150613dea82613cfd565b9150613df68284613ab5565b9150613e0182613d49565b9150819050979650505050505050565b7f646174613a6170706c69636174696f6e2f6a736f6e3b6261736536342c000000600082015250565b6000613e47601d83613a5e565b9150613e5282613e11565b601d82019050919050565b6000613e6882613e3a565b9150613e748284613ab5565b915081905092915050565b7f4e487b7100000000000000000000000000000000000000000000000000000000600052603260045260246000fd5b6000606082019050613ec36000830186612d9b565b613ed06020830185612eb1565b613edd6040830184612eb1565b949350505050565b60006080820190508181036000830152613eff8187612cab565b90508181036020830152613f138186612cab565b9050613f226040830185612eb1565b8181036060830152613f348184612cab565b905095945050505050565b7f4552433732313a206f70657261746f7220717565727920666f72206e6f6e657860008201527f697374656e7420746f6b656e0000000000000000000000000000000000000000602082015250565b6000613f9b602c83612c56565b9150613fa682613f3f565b604082019050919050565b60006020820190508181036000830152613fca81613f8e565b9050919050565b7f4552433732313a207472616e73666572206f6620746f6b656e2074686174206960008201527f73206e6f74206f776e0000000000000000000000000000000000000000000000602082015250565b600061402d602983612c56565b915061403882613fd1565b604082019050919050565b6000602082019050818103600083015261405c81614020565b9050919050565b7f4552433732313a207472616e7366657220746f20746865207a65726f2061646460008201527f7265737300000000000000000000000000000000000000000000000000000000602082015250565b60006140bf602483612c56565b91506140ca82614063565b604082019050919050565b600060208201905081810360008301526140ee816140b2565b9050919050565b600061410082612d06565b915061410b83612d06565b9250827fffffffffffffffffffffffffffffffffffffffffffffffffffffffffffffffff038211156141405761413f6139d2565b5b828201905092915050565b7f4552433732313a20617070726f766520746f2063616c6c657200000000000000600082015250565b6000614181601983612c56565b915061418c8261414b565b602082019050919050565b600060208201905081810360008301526141b081614174565b9050919050565b600060808201905081810360008301526141d18187612cab565b905081810360208301526141e58186612cab565b90506141f46040830185612eb1565b6142016060830184612eb1565b95945050505050565b7f4552433732313a207472616e7366657220746f206e6f6e20455243373231526560008201527f63656976657220696d706c656d656e7465720000000000000000000000000000602082015250565b6000614266603283612c56565b91506142718261420a565b604082019050919050565b6000602082019050818103600083015261429581614259565b9050919050565b60006142a782612d06565b91507fffffffffffffffffffffffffffffffffffffffffffffffffffffffffffffffff8214156142da576142d96139d2565b5b600182019050919050565b7f4e487b7100000000000000000000000000000000000000000000000000000000600052601260045260246000fd5b600061431f82612d06565b915061432a83612d06565b92508261433a576143396142e5565b5b828204905092915050565b600061435082612d06565b915061435b83612d06565b92508261436b5761436a6142e5565b5b828206905092915050565b600061438182612d06565b915061438c83612d06565b9250817fffffffffffffffffffffffffffffffffffffffffffffffffffffffffffffffff04831182151516156143c5576143c46139d2565b5b828202905092915050565b600060608201905081810360008301526143ea8186612cab565b90506143f96020830185612eb1565b6144066040830184612eb1565b949350505050565b600081519050919050565b600082825260208201905092915050565b60006144358261440e565b61443f8185614419565b935061444f818560208601612c67565b61445881612c9a565b840191505092915050565b60006080820190506144786000830187612d9b565b6144856020830186612d9b565b6144926040830185612eb1565b81810360608301526144a4818461442a565b905095945050505050565b6000815190506144be81612bbc565b92915050565b6000602082840312156144da576144d9612b86565b5b60006144e8848285016144af565b91505092915050565b7f4552433732313a206d696e7420746f20746865207a65726f2061646472657373600082015250565b6000614527602083612c56565b9150614532826144f1565b602082019050919050565b600060208201905081810360008301526145568161451a565b9050919050565b7f4552433732313a20746f6b656e20616c7265616479206d696e74656400000000600082015250565b6000614593601c83612c56565b915061459e8261455d565b602082019050919050565b600060208201905081810360008301526145c281614586565b905091905056fe4142434445464748494a4b4c4d4e4f505152535455565758595a6162636465666768696a6b6c6d6e6f707172737475767778797a303132333435363738392b2f4d696e746564204e465420772f20746f6b656e496420257320616e6420636861726163746572496e6465782025730a506c6179657220772f206368617261637465722025732061626f757420746f2061747461636b2e2048617320257320485020616e64202573204144a2646970667358221220b9b59fb6038a6558d6628a1cd3693fba8c49a885d3384b9a11719dff3c05ad1764736f6c634300080b0033446f6e6520696e697469616c697a696e6720257320772f2048502025732c20696d67202573446f6e6520696e697469616c697a696e6720696e7661646f7220257320772f2048502025732c20696d67202573",
  "linkReferences": {},
  "deployedLinkReferences": {}
}