{
  "_format": "hh-sol-artifact-1",
  "contractName": "Invasion",
  "sourceName": "contracts/Invasion.sol",
  "abi": [
    {
      "inputs": [
        {
          "internalType": "string[]",
          "name": "characterNames",
          "type": "string[]"
        },
        {
          "internalType": "string[]",
          "name": "characterImageURIs",
          "type": "string[]"
        },
        {
          "internalType": "uint256[]",
          "name": "characterHp",
          "type": "uint256[]"
        },
        {
          "internalType": "uint256[]",
          "name": "characterAttackDmg",
          "type": "uint256[]"
        },
        {
          "internalType": "string",
          "name": "invadorName",
          "type": "string"
        },
        {
          "internalType": "string",
          "name": "invadorImageURI",
          "type": "string"
        },
        {
          "internalType": "uint256",
          "name": "invadorHp",
          "type": "uint256"
        },
        {
          "internalType": "uint256",
          "name": "invadorAttackDamage",
          "type": "uint256"
        },
        {
          "internalType": "string[]",
          "name": "weaponNames",
          "type": "string[]"
        },
        {
          "internalType": "string[]",
          "name": "weaponImageURIs",
          "type": "string[]"
        },
        {
          "internalType": "uint256[]",
          "name": "weaponAttackDmg",
          "type": "uint256[]"
        }
      ],
      "stateMutability": "nonpayable",
      "type": "constructor"
    },
    {
      "anonymous": false,
      "inputs": [
        {
          "indexed": true,
          "internalType": "address",
          "name": "owner",
          "type": "address"
        },
        {
          "indexed": true,
          "internalType": "address",
          "name": "approved",
          "type": "address"
        },
        {
          "indexed": true,
          "internalType": "uint256",
          "name": "tokenId",
          "type": "uint256"
        }
      ],
      "name": "Approval",
      "type": "event"
    },
    {
      "anonymous": false,
      "inputs": [
        {
          "indexed": true,
          "internalType": "address",
          "name": "owner",
          "type": "address"
        },
        {
          "indexed": true,
          "internalType": "address",
          "name": "operator",
          "type": "address"
        },
        {
          "indexed": false,
          "internalType": "bool",
          "name": "approved",
          "type": "bool"
        }
      ],
      "name": "ApprovalForAll",
      "type": "event"
    },
    {
      "anonymous": false,
      "inputs": [
        {
          "indexed": false,
          "internalType": "uint256",
          "name": "newInvadorHp",
          "type": "uint256"
        },
        {
          "indexed": false,
          "internalType": "uint256",
          "name": "newPlayerHp",
          "type": "uint256"
        }
      ],
      "name": "AttackComplete",
      "type": "event"
    },
    {
      "anonymous": false,
      "inputs": [
        {
          "indexed": false,
          "internalType": "address",
          "name": "sender",
          "type": "address"
        },
        {
          "indexed": false,
          "internalType": "uint256",
          "name": "tokenId",
          "type": "uint256"
        },
        {
          "indexed": false,
          "internalType": "uint256",
          "name": "characterIndex",
          "type": "uint256"
        }
      ],
      "name": "CharacterNFTMinted",
      "type": "event"
    },
    {
      "anonymous": false,
      "inputs": [
        {
          "indexed": false,
          "internalType": "uint256",
          "name": "playerIndex",
          "type": "uint256"
        },
        {
          "indexed": false,
          "internalType": "uint256",
          "name": "playerHp",
          "type": "uint256"
        }
      ],
      "name": "HealComplete",
      "type": "event"
    },
    {
      "anonymous": false,
      "inputs": [
        {
          "indexed": true,
          "internalType": "address",
          "name": "previousOwner",
          "type": "address"
        },
        {
          "indexed": true,
          "internalType": "address",
          "name": "newOwner",
          "type": "address"
        }
      ],
      "name": "OwnershipTransferred",
      "type": "event"
    },
    {
      "anonymous": false,
      "inputs": [
        {
          "indexed": true,
          "internalType": "address",
          "name": "from",
          "type": "address"
        },
        {
          "indexed": true,
          "internalType": "address",
          "name": "to",
          "type": "address"
        },
        {
          "indexed": true,
          "internalType": "uint256",
          "name": "tokenId",
          "type": "uint256"
        }
      ],
      "name": "Transfer",
      "type": "event"
    },
    {
      "anonymous": false,
      "inputs": [
        {
          "indexed": false,
          "internalType": "address",
          "name": "sender",
          "type": "address"
        },
        {
          "indexed": false,
          "internalType": "uint256",
          "name": "tokenId",
          "type": "uint256"
        },
        {
          "indexed": false,
          "internalType": "uint256",
          "name": "weaponIndex",
          "type": "uint256"
        }
      ],
      "name": "WeaponNFTMinted",
      "type": "event"
    },
    {
      "inputs": [
        {
          "internalType": "address",
          "name": "to",
          "type": "address"
        },
        {
          "internalType": "uint256",
          "name": "tokenId",
          "type": "uint256"
        }
      ],
      "name": "approve",
      "outputs": [],
      "stateMutability": "nonpayable",
      "type": "function"
    },
    {
      "inputs": [],
      "name": "attackInvador",
      "outputs": [],
      "stateMutability": "nonpayable",
      "type": "function"
    },
    {
      "inputs": [
        {
          "internalType": "address",
          "name": "owner",
          "type": "address"
        }
      ],
      "name": "balanceOf",
      "outputs": [
        {
          "internalType": "uint256",
          "name": "",
          "type": "uint256"
        }
      ],
      "stateMutability": "view",
      "type": "function"
    },
    {
      "inputs": [],
      "name": "checkIfUserHasNFTCharacter",
      "outputs": [
        {
          "components": [
            {
              "internalType": "uint256",
              "name": "characterIndex",
              "type": "uint256"
            },
            {
              "internalType": "string",
              "name": "name",
              "type": "string"
            },
            {
              "internalType": "string",
              "name": "imageURI",
              "type": "string"
            },
            {
              "internalType": "uint256",
              "name": "hp",
              "type": "uint256"
            },
            {
              "internalType": "uint256",
              "name": "maxHp",
              "type": "uint256"
            },
            {
              "internalType": "uint256",
              "name": "attackDamage",
              "type": "uint256"
            }
          ],
          "internalType": "struct CharacterAttributes",
          "name": "",
          "type": "tuple"
        }
      ],
      "stateMutability": "view",
      "type": "function"
    },
    {
      "inputs": [],
      "name": "checkIfUserHasNFTWeapon",
      "outputs": [
        {
          "components": [
            {
              "internalType": "uint256",
              "name": "characterIndex",
              "type": "uint256"
            },
            {
              "internalType": "string",
              "name": "name",
              "type": "string"
            },
            {
              "internalType": "string",
              "name": "imageURI",
              "type": "string"
            },
            {
              "internalType": "uint256",
              "name": "hp",
              "type": "uint256"
            },
            {
              "internalType": "uint256",
              "name": "maxHp",
              "type": "uint256"
            },
            {
              "internalType": "uint256",
              "name": "attackDamage",
              "type": "uint256"
            }
          ],
          "internalType": "struct CharacterAttributes",
          "name": "",
          "type": "tuple"
        }
      ],
      "stateMutability": "view",
      "type": "function"
    },
    {
      "inputs": [
        {
          "internalType": "uint256",
          "name": "tokenId",
          "type": "uint256"
        }
      ],
      "name": "getApproved",
      "outputs": [
        {
          "internalType": "address",
          "name": "",
          "type": "address"
        }
      ],
      "stateMutability": "view",
      "type": "function"
    },
    {
      "inputs": [],
      "name": "getDefaultCharacters",
      "outputs": [
        {
          "components": [
            {
              "internalType": "uint256",
              "name": "characterIndex",
              "type": "uint256"
            },
            {
              "internalType": "string",
              "name": "name",
              "type": "string"
            },
            {
              "internalType": "string",
              "name": "imageURI",
              "type": "string"
            },
            {
              "internalType": "uint256",
              "name": "hp",
              "type": "uint256"
            },
            {
              "internalType": "uint256",
              "name": "maxHp",
              "type": "uint256"
            },
            {
              "internalType": "uint256",
              "name": "attackDamage",
              "type": "uint256"
            }
          ],
          "internalType": "struct CharacterAttributes[]",
          "name": "",
          "type": "tuple[]"
        }
      ],
      "stateMutability": "view",
      "type": "function"
    },
    {
      "inputs": [],
      "name": "getDefaultWeapons",
      "outputs": [
        {
          "components": [
            {
              "internalType": "uint256",
              "name": "characterIndex",
              "type": "uint256"
            },
            {
              "internalType": "string",
              "name": "name",
              "type": "string"
            },
            {
              "internalType": "string",
              "name": "imageURI",
              "type": "string"
            },
            {
              "internalType": "uint256",
              "name": "hp",
              "type": "uint256"
            },
            {
              "internalType": "uint256",
              "name": "maxHp",
              "type": "uint256"
            },
            {
              "internalType": "uint256",
              "name": "attackDamage",
              "type": "uint256"
            }
          ],
          "internalType": "struct CharacterAttributes[]",
          "name": "",
          "type": "tuple[]"
        }
      ],
      "stateMutability": "view",
      "type": "function"
    },
    {
      "inputs": [],
      "name": "getInvador",
      "outputs": [
        {
          "components": [
            {
              "internalType": "string",
              "name": "name",
              "type": "string"
            },
            {
              "internalType": "string",
              "name": "imageURI",
              "type": "string"
            },
            {
              "internalType": "uint256",
              "name": "hp",
              "type": "uint256"
            },
            {
              "internalType": "uint256",
              "name": "maxHp",
              "type": "uint256"
            },
            {
              "internalType": "uint256",
              "name": "attackDamage",
              "type": "uint256"
            }
          ],
          "internalType": "struct Invador",
          "name": "",
          "type": "tuple"
        }
      ],
      "stateMutability": "view",
      "type": "function"
    },
    {
      "inputs": [],
      "name": "heal",
      "outputs": [],
      "stateMutability": "payable",
      "type": "function"
    },
    {
      "inputs": [],
      "name": "healCost",
      "outputs": [
        {
          "internalType": "uint256",
          "name": "",
          "type": "uint256"
        }
      ],
      "stateMutability": "view",
      "type": "function"
    },
    {
      "inputs": [],
      "name": "invador",
      "outputs": [
        {
          "internalType": "string",
          "name": "name",
          "type": "string"
        },
        {
          "internalType": "string",
          "name": "imageURI",
          "type": "string"
        },
        {
          "internalType": "uint256",
          "name": "hp",
          "type": "uint256"
        },
        {
          "internalType": "uint256",
          "name": "maxHp",
          "type": "uint256"
        },
        {
          "internalType": "uint256",
          "name": "attackDamage",
          "type": "uint256"
        }
      ],
      "stateMutability": "view",
      "type": "function"
    },
    {
      "inputs": [
        {
          "internalType": "address",
          "name": "owner",
          "type": "address"
        },
        {
          "internalType": "address",
          "name": "operator",
          "type": "address"
        }
      ],
      "name": "isApprovedForAll",
      "outputs": [
        {
          "internalType": "bool",
          "name": "",
          "type": "bool"
        }
      ],
      "stateMutability": "view",
      "type": "function"
    },
    {
      "inputs": [
        {
          "internalType": "uint256",
          "name": "_characterIndex",
          "type": "uint256"
        }
      ],
      "name": "mintCharacterNFT",
      "outputs": [],
      "stateMutability": "nonpayable",
      "type": "function"
    },
    {
      "inputs": [
        {
          "internalType": "uint256",
          "name": "_weaponIndex",
          "type": "uint256"
        }
      ],
      "name": "mintWeaponNFT",
      "outputs": [],
      "stateMutability": "nonpayable",
      "type": "function"
    },
    {
      "inputs": [],
      "name": "name",
      "outputs": [
        {
          "internalType": "string",
          "name": "",
          "type": "string"
        }
      ],
      "stateMutability": "view",
      "type": "function"
    },
    {
      "inputs": [
        {
          "internalType": "uint256",
          "name": "",
          "type": "uint256"
        }
      ],
      "name": "nftHolderAttributes",
      "outputs": [
        {
          "internalType": "uint256",
          "name": "characterIndex",
          "type": "uint256"
        },
        {
          "internalType": "string",
          "name": "name",
          "type": "string"
        },
        {
          "internalType": "string",
          "name": "imageURI",
          "type": "string"
        },
        {
          "internalType": "uint256",
          "name": "hp",
          "type": "uint256"
        },
        {
          "internalType": "uint256",
          "name": "maxHp",
          "type": "uint256"
        },
        {
          "internalType": "uint256",
          "name": "attackDamage",
          "type": "uint256"
        }
      ],
      "stateMutability": "view",
      "type": "function"
    },
    {
      "inputs": [
        {
          "internalType": "address",
          "name": "",
          "type": "address"
        }
      ],
      "name": "nftHolders",
      "outputs": [
        {
          "internalType": "uint256",
          "name": "",
          "type": "uint256"
        }
      ],
      "stateMutability": "view",
      "type": "function"
    },
    {
      "inputs": [
        {
          "internalType": "address",
          "name": "",
          "type": "address"
        }
      ],
      "name": "nftWeaponHolders",
      "outputs": [
        {
          "internalType": "uint256",
          "name": "",
          "type": "uint256"
        }
      ],
      "stateMutability": "view",
      "type": "function"
    },
    {
      "inputs": [],
      "name": "owner",
      "outputs": [
        {
          "internalType": "address",
          "name": "",
          "type": "address"
        }
      ],
      "stateMutability": "view",
      "type": "function"
    },
    {
      "inputs": [
        {
          "internalType": "uint256",
          "name": "tokenId",
          "type": "uint256"
        }
      ],
      "name": "ownerOf",
      "outputs": [
        {
          "internalType": "address",
          "name": "",
          "type": "address"
        }
      ],
      "stateMutability": "view",
      "type": "function"
    },
    {
      "inputs": [],
      "name": "renounceOwnership",
      "outputs": [],
      "stateMutability": "nonpayable",
      "type": "function"
    },
    {
      "inputs": [
        {
          "internalType": "address",
          "name": "from",
          "type": "address"
        },
        {
          "internalType": "address",
          "name": "to",
          "type": "address"
        },
        {
          "internalType": "uint256",
          "name": "tokenId",
          "type": "uint256"
        }
      ],
      "name": "safeTransferFrom",
      "outputs": [],
      "stateMutability": "nonpayable",
      "type": "function"
    },
    {
      "inputs": [
        {
          "internalType": "address",
          "name": "from",
          "type": "address"
        },
        {
          "internalType": "address",
          "name": "to",
          "type": "address"
        },
        {
          "internalType": "uint256",
          "name": "tokenId",
          "type": "uint256"
        },
        {
          "internalType": "bytes",
          "name": "_data",
          "type": "bytes"
        }
      ],
      "name": "safeTransferFrom",
      "outputs": [],
      "stateMutability": "nonpayable",
      "type": "function"
    },
    {
      "inputs": [
        {
          "internalType": "address",
          "name": "operator",
          "type": "address"
        },
        {
          "internalType": "bool",
          "name": "approved",
          "type": "bool"
        }
      ],
      "name": "setApprovalForAll",
      "outputs": [],
      "stateMutability": "nonpayable",
      "type": "function"
    },
    {
      "inputs": [
        {
          "internalType": "bytes4",
          "name": "interfaceId",
          "type": "bytes4"
        }
      ],
      "name": "supportsInterface",
      "outputs": [
        {
          "internalType": "bool",
          "name": "",
          "type": "bool"
        }
      ],
      "stateMutability": "view",
      "type": "function"
    },
    {
      "inputs": [],
      "name": "symbol",
      "outputs": [
        {
          "internalType": "string",
          "name": "",
          "type": "string"
        }
      ],
      "stateMutability": "view",
      "type": "function"
    },
    {
      "inputs": [
        {
          "internalType": "uint256",
          "name": "_tokenId",
          "type": "uint256"
        }
      ],
      "name": "tokenURI",
      "outputs": [
        {
          "internalType": "string",
          "name": "",
          "type": "string"
        }
      ],
      "stateMutability": "view",
      "type": "function"
    },
    {
      "inputs": [
        {
          "internalType": "address",
          "name": "from",
          "type": "address"
        },
        {
          "internalType": "address",
          "name": "to",
          "type": "address"
        },
        {
          "internalType": "uint256",
          "name": "tokenId",
          "type": "uint256"
        }
      ],
      "name": "transferFrom",
      "outputs": [],
      "stateMutability": "nonpayable",
      "type": "function"
    },
    {
      "inputs": [
        {
          "internalType": "address",
          "name": "newOwner",
          "type": "address"
        }
      ],
      "name": "transferOwnership",
      "outputs": [],
      "stateMutability": "nonpayable",
      "type": "function"
    },
    {
      "inputs": [],
      "name": "withdraw",
      "outputs": [],
      "stateMutability": "payable",
      "type": "function"
    }
  ],
  "bytecode": "0x60806040523480156200001157600080fd5b5060405162006c2c38038062006c2c833981810160405281019062000037919062000c35565b6040518060400160405280600681526020017f4865726f657300000000000000000000000000000000000000000000000000008152506040518060400160405280600481526020017f4845524f000000000000000000000000000000000000000000000000000000008152508160009080519060200190620000bb929190620007db565b508060019080519060200190620000d4929190620007db565b505050620000f7620000eb6200062560201b60201c565b6200062d60201b60201c565b60005b8b518110156200026c5760086040518060c001604052808381526020018e84815181106200012d576200012c62000e59565b5b602002602001015181526020018d848151811062000150576200014f62000e59565b5b602002602001015181526020018c848151811062000173576200017262000e59565b5b602002602001015181526020018c848151811062000196576200019562000e59565b5b602002602001015181526020018b8481518110620001b957620001b862000e59565b5b6020026020010151815250908060018154018082558091505060019003906000526020600020906006020160009091909190915060008201518160000155602082015181600101908051906020019062000215929190620007db565b50604082015181600201908051906020019062000234929190620007db565b50606082015181600301556080820151816004015560a08201518160050155505060018162000264919062000eb7565b9050620000fa565b506040518060a0016040528088815260200187815260200186815260200186815260200185815250600d6000820151816000019080519060200190620002b4929190620007db565b506020820151816001019080519060200190620002d3929190620007db565b5060408201518160020155606082015181600301556080820151816004015590505060005b8351811015620005fc5760096040518060c001604052808381526020018684815181106200032b576200032a62000e59565b5b602002602001015181526020018584815181106200034e576200034d62000e59565b5b6020026020010151815260200160008152602001600081526020018484815181106200037f576200037e62000e59565b5b60200260200101518152509080600181540180825580915050600190039060005260206000209060060201600090919091909150600082015181600001556020820151816001019080519060200190620003db929190620007db565b506040820151816002019080519060200190620003fa929190620007db565b50606082015181600301556080820151816004015560a08201518160050155505060006009828154811062000434576200043362000e59565b5b90600052602060002090600602016040518060c001604052908160008201548152602001600182018054620004699062000f43565b80601f0160208091040260200160405190810160405280929190818152602001828054620004979062000f43565b8015620004e85780601f10620004bc57610100808354040283529160200191620004e8565b820191906000526020600020905b815481529060010190602001808311620004ca57829003601f168201915b50505050508152602001600282018054620005039062000f43565b80601f0160208091040260200160405190810160405280929190818152602001828054620005319062000f43565b8015620005825780601f10620005565761010080835404028352916020019162000582565b820191906000526020600020905b8154815290600101906020018083116200056457829003601f168201915b5050505050815260200160038201548152602001600482015481526020016005820154815250509050620005e460405180606001604052806025815260200162006c076025913982602001518360400151620006f360201b62002af31760201c565b50600181620005f4919062000eb7565b9050620002f8565b506200061460076200079c60201b62002b921760201c565b505050505050505050505062001028565b600033905090565b6000600660009054906101000a900473ffffffffffffffffffffffffffffffffffffffff16905081600660006101000a81548173ffffffffffffffffffffffffffffffffffffffff021916908373ffffffffffffffffffffffffffffffffffffffff1602179055508173ffffffffffffffffffffffffffffffffffffffff168173ffffffffffffffffffffffffffffffffffffffff167f8be0079c531659141344cd1fd0a4f28419497f9722a3daafe3b4186f6b6457e060405160405180910390a35050565b620007978383836040516024016200070e9392919062000fd6565b6040516020818303038152906040527f2ced7cef000000000000000000000000000000000000000000000000000000007bffffffffffffffffffffffffffffffffffffffffffffffffffffffff19166020820180517bffffffffffffffffffffffffffffffffffffffffffffffffffffffff8381831617835250505050620007b260201b60201c565b505050565b6001816000016000828254019250508190555050565b60008151905060006a636f6e736f6c652e6c6f679050602083016000808483855afa5050505050565b828054620007e99062000f43565b90600052602060002090601f0160209004810192826200080d576000855562000859565b82601f106200082857805160ff191683800117855562000859565b8280016001018555821562000859579182015b82811115620008585782518255916020019190600101906200083b565b5b5090506200086891906200086c565b5090565b5b80821115620008875760008160009055506001016200086d565b5090565b6000604051905090565b600080fd5b600080fd5b600080fd5b6000601f19601f8301169050919050565b7f4e487b7100000000000000000000000000000000000000000000000000000000600052604160045260246000fd5b620008ef82620008a4565b810181811067ffffffffffffffff82111715620009115762000910620008b5565b5b80604052505050565b6000620009266200088b565b9050620009348282620008e4565b919050565b600067ffffffffffffffff821115620009575762000956620008b5565b5b602082029050602081019050919050565b600080fd5b600080fd5b600067ffffffffffffffff82111562000990576200098f620008b5565b5b6200099b82620008a4565b9050602081019050919050565b60005b83811015620009c8578082015181840152602081019050620009ab565b83811115620009d8576000848401525b50505050565b6000620009f5620009ef8462000972565b6200091a565b90508281526020810184848401111562000a145762000a136200096d565b5b62000a21848285620009a8565b509392505050565b600082601f83011262000a415762000a406200089f565b5b815162000a53848260208601620009de565b91505092915050565b600062000a7362000a6d8462000939565b6200091a565b9050808382526020820190506020840283018581111562000a995762000a9862000968565b5b835b8181101562000ae757805167ffffffffffffffff81111562000ac25762000ac16200089f565b5b80860162000ad1898262000a29565b8552602085019450505060208101905062000a9b565b5050509392505050565b600082601f83011262000b095762000b086200089f565b5b815162000b1b84826020860162000a5c565b91505092915050565b600067ffffffffffffffff82111562000b425762000b41620008b5565b5b602082029050602081019050919050565b6000819050919050565b62000b688162000b53565b811462000b7457600080fd5b50565b60008151905062000b888162000b5d565b92915050565b600062000ba562000b9f8462000b24565b6200091a565b9050808382526020820190506020840283018581111562000bcb5762000bca62000968565b5b835b8181101562000bf8578062000be3888262000b77565b84526020840193505060208101905062000bcd565b5050509392505050565b600082601f83011262000c1a5762000c196200089f565b5b815162000c2c84826020860162000b8e565b91505092915050565b60008060008060008060008060008060006101608c8e03121562000c5e5762000c5d62000895565b5b60008c015167ffffffffffffffff81111562000c7f5762000c7e6200089a565b5b62000c8d8e828f0162000af1565b9b505060208c015167ffffffffffffffff81111562000cb15762000cb06200089a565b5b62000cbf8e828f0162000af1565b9a505060408c015167ffffffffffffffff81111562000ce35762000ce26200089a565b5b62000cf18e828f0162000c02565b99505060608c015167ffffffffffffffff81111562000d155762000d146200089a565b5b62000d238e828f0162000c02565b98505060808c015167ffffffffffffffff81111562000d475762000d466200089a565b5b62000d558e828f0162000a29565b97505060a08c015167ffffffffffffffff81111562000d795762000d786200089a565b5b62000d878e828f0162000a29565b96505060c062000d9a8e828f0162000b77565b95505060e062000dad8e828f0162000b77565b9450506101008c015167ffffffffffffffff81111562000dd25762000dd16200089a565b5b62000de08e828f0162000af1565b9350506101208c015167ffffffffffffffff81111562000e055762000e046200089a565b5b62000e138e828f0162000af1565b9250506101408c015167ffffffffffffffff81111562000e385762000e376200089a565b5b62000e468e828f0162000c02565b9150509295989b509295989b9093969950565b7f4e487b7100000000000000000000000000000000000000000000000000000000600052603260045260246000fd5b7f4e487b7100000000000000000000000000000000000000000000000000000000600052601160045260246000fd5b600062000ec48262000b53565b915062000ed18362000b53565b9250827fffffffffffffffffffffffffffffffffffffffffffffffffffffffffffffffff0382111562000f095762000f0862000e88565b5b828201905092915050565b7f4e487b7100000000000000000000000000000000000000000000000000000000600052602260045260246000fd5b6000600282049050600182168062000f5c57607f821691505b6020821081141562000f735762000f7262000f14565b5b50919050565b600081519050919050565b600082825260208201905092915050565b600062000fa28262000f79565b62000fae818562000f84565b935062000fc0818560208601620009a8565b62000fcb81620008a4565b840191505092915050565b6000606082019050818103600083015262000ff2818662000f95565b9050818103602083015262001008818562000f95565b905081810360408301526200101e818462000f95565b9050949350505050565b615bcf80620010386000396000f3fe6080604052600436106101d85760003560e01c806387a36c7b11610102578063c01a1d4b11610095578063d3ee070211610064578063d3ee070214610689578063e985e9c5146106b4578063f2fde38b146106f1578063f8b81ef71461071a576101d8565b8063c01a1d4b146105c9578063c3995b99146105f4578063c87b56dd1461061d578063cdd07f891461065a576101d8565b8063a22cb465116100d1578063a22cb46514610523578063a496c1501461054c578063aa89324f14610563578063b88d4fde146105a0576101d8565b806387a36c7b146104605780638da5cb5b1461048b57806395d89b41146104b657806398da4c95146104e1576101d8565b806342842e0e1161017a57806370a082311161014957806370a08231146103a4578063715018a6146103e157806374bce80a146103f85780637df124a114610423576101d8565b806342842e0e146102e85780634ccf09a2146103115780635fba2cea1461033c5780636352211e14610367576101d8565b8063081812fc116101b6578063081812fc1461024f578063095ea7b31461028c57806323b872dd146102b55780633ccfd60b146102de576101d8565b806301ffc9a7146101dd5780630434fe0b1461021a57806306fdde0314610224575b600080fd5b3480156101e957600080fd5b5061020460048036038101906101ff9190613e0f565b610743565b6040516102119190613e57565b60405180910390f35b610222610825565b005b34801561023057600080fd5b50610239610ab8565b6040516102469190613f0b565b60405180910390f35b34801561025b57600080fd5b5061027660048036038101906102719190613f63565b610b4a565b6040516102839190613fd1565b60405180910390f35b34801561029857600080fd5b506102b360048036038101906102ae9190614018565b610bcf565b005b3480156102c157600080fd5b506102dc60048036038101906102d79190614058565b610ce7565b005b6102e6610d47565b005b3480156102f457600080fd5b5061030f600480360381019061030a9190614058565b610e0c565b005b34801561031d57600080fd5b50610326610e2c565b6040516103339190614194565b60405180910390f35b34801561034857600080fd5b50610351611004565b60405161035e91906141c5565b60405180910390f35b34801561037357600080fd5b5061038e60048036038101906103899190613f63565b6110d6565b60405161039b9190613fd1565b60405180910390f35b3480156103b057600080fd5b506103cb60048036038101906103c691906141e0565b611188565b6040516103d891906141c5565b60405180910390f35b3480156103ed57600080fd5b506103f6611240565b005b34801561040457600080fd5b5061040d6112c8565b60405161041a919061435f565b60405180910390f35b34801561042f57600080fd5b5061044a600480360381019061044591906141e0565b611473565b60405161045791906141c5565b60405180910390f35b34801561046c57600080fd5b5061047561148b565b60405161048291906143fe565b60405180910390f35b34801561049757600080fd5b506104a06115e7565b6040516104ad9190613fd1565b60405180910390f35b3480156104c257600080fd5b506104cb611611565b6040516104d89190613f0b565b60405180910390f35b3480156104ed57600080fd5b5061050860048036038101906105039190613f63565b6116a3565b60405161051a96959493929190614420565b60405180910390f35b34801561052f57600080fd5b5061054a600480360381019061054591906144bb565b6117ef565b005b34801561055857600080fd5b50610561611805565b005b34801561056f57600080fd5b5061058a600480360381019061058591906141e0565b611baf565b60405161059791906141c5565b60405180910390f35b3480156105ac57600080fd5b506105c760048036038101906105c29190614630565b611bc7565b005b3480156105d557600080fd5b506105de611c29565b6040516105eb9190614194565b60405180910390f35b34801561060057600080fd5b5061061b60048036038101906106169190613f63565b611e01565b005b34801561062957600080fd5b50610644600480360381019061063f9190613f63565b612137565b6040516106519190613f0b565b60405180910390f35b34801561066657600080fd5b5061066f612352565b6040516106809594939291906146b3565b60405180910390f35b34801561069557600080fd5b5061069e612486565b6040516106ab919061435f565b60405180910390f35b3480156106c057600080fd5b506106db60048036038101906106d69190614714565b612631565b6040516106e89190613e57565b60405180910390f35b3480156106fd57600080fd5b50610718600480360381019061071391906141e0565b6126c5565b005b34801561072657600080fd5b50610741600480360381019061073c9190613f63565b6127bd565b005b60007f80ac58cd000000000000000000000000000000000000000000000000000000007bffffffffffffffffffffffffffffffffffffffffffffffffffffffff1916827bffffffffffffffffffffffffffffffffffffffffffffffffffffffff1916148061080e57507f5b5e139f000000000000000000000000000000000000000000000000000000007bffffffffffffffffffffffffffffffffffffffffffffffffffffffff1916827bffffffffffffffffffffffffffffffffffffffffffffffffffffffff1916145b8061081e575061081d82612ba8565b5b9050919050565b61082d611004565b34101561086f576040517f08c379a0000000000000000000000000000000000000000000000000000000008152600401610866906147a0565b60405180910390fd5b6108ae6040518060400160405280601b81526020017f56616c75652073656e7420666f72206865616c696e672025733a20000000000081525034612c12565b6000600b60003373ffffffffffffffffffffffffffffffffffffffff1673ffffffffffffffffffffffffffffffffffffffff1681526020019081526020016000205490506000600a6000838152602001908152602001600020905060008160030154826004015461091f91906147ef565b905060008111610964576040517f08c379a000000000000000000000000000000000000000000000000000000000815260040161095b9061486f565b60405180910390fd5b61096c6115e7565b73ffffffffffffffffffffffffffffffffffffffff166108fc349081150290604051600060405180830381858888f193505050501580156109b1573d6000803e3d6000fd5b5081600401548260030181905550610a72604051806060016040528060308152602001615b2e603091398360010180546109ea906148be565b80601f0160208091040260200160405190810160405280929190818152602001828054610a16906148be565b8015610a635780601f10610a3857610100808354040283529160200191610a63565b820191906000526020600020905b815481529060010190602001808311610a4657829003601f168201915b50505050508460030154612cae565b7fbe48ddc4757287d79e6453c381ab1b1a1c1d18a4fdcf61bde378de226024f22c82600001548360030154604051610aab9291906148f0565b60405180910390a1505050565b606060008054610ac7906148be565b80601f0160208091040260200160405190810160405280929190818152602001828054610af3906148be565b8015610b405780601f10610b1557610100808354040283529160200191610b40565b820191906000526020600020905b815481529060010190602001808311610b2357829003601f168201915b5050505050905090565b6000610b5582612d4d565b610b94576040517f08c379a0000000000000000000000000000000000000000000000000000000008152600401610b8b9061498b565b60405180910390fd5b6004600083815260200190815260200160002060009054906101000a900473ffffffffffffffffffffffffffffffffffffffff169050919050565b6000610bda826110d6565b90508073ffffffffffffffffffffffffffffffffffffffff168373ffffffffffffffffffffffffffffffffffffffff161415610c4b576040517f08c379a0000000000000000000000000000000000000000000000000000000008152600401610c4290614a1d565b60405180910390fd5b8073ffffffffffffffffffffffffffffffffffffffff16610c6a612db9565b73ffffffffffffffffffffffffffffffffffffffff161480610c995750610c9881610c93612db9565b612631565b5b610cd8576040517f08c379a0000000000000000000000000000000000000000000000000000000008152600401610ccf90614aaf565b60405180910390fd5b610ce28383612dc1565b505050565b610cf8610cf2612db9565b82612e7a565b610d37576040517f08c379a0000000000000000000000000000000000000000000000000000000008152600401610d2e90614b41565b60405180910390fd5b610d42838383612f58565b505050565b610d4f612db9565b73ffffffffffffffffffffffffffffffffffffffff16610d6d6115e7565b73ffffffffffffffffffffffffffffffffffffffff1614610dc3576040517f08c379a0000000000000000000000000000000000000000000000000000000008152600401610dba90614bad565b60405180910390fd5b3373ffffffffffffffffffffffffffffffffffffffff166108fc479081150290604051600060405180830381858888f19350505050158015610e09573d6000803e3d6000fd5b50565b610e2783838360405180602001604052806000815250611bc7565b505050565b610e34613c9b565b6000600b60003373ffffffffffffffffffffffffffffffffffffffff1673ffffffffffffffffffffffffffffffffffffffff1681526020019081526020016000205490506000811115610ff357600a60008281526020019081526020016000206040518060c001604052908160008201548152602001600182018054610eb9906148be565b80601f0160208091040260200160405190810160405280929190818152602001828054610ee5906148be565b8015610f325780601f10610f0757610100808354040283529160200191610f32565b820191906000526020600020905b815481529060010190602001808311610f1557829003601f168201915b50505050508152602001600282018054610f4b906148be565b80601f0160208091040260200160405190810160405280929190818152602001828054610f77906148be565b8015610fc45780601f10610f9957610100808354040283529160200191610fc4565b820191906000526020600020905b815481529060010190602001808311610fa757829003601f168201915b505050505081526020016003820154815260200160048201548152602001600582015481525050915050611001565b610ffb613c9b565b80925050505b90565b600080600b60003373ffffffffffffffffffffffffffffffffffffffff1673ffffffffffffffffffffffffffffffffffffffff1681526020019081526020016000205490506000811161108c576040517f08c379a000000000000000000000000000000000000000000000000000000000815260040161108390614c3f565b60405180910390fd5b6000600a60008381526020019081526020016000209050600066038d7ea4c68000905080826003015483600401546110c491906147ef565b6110ce9190614c5f565b935050505090565b6000806002600084815260200190815260200160002060009054906101000a900473ffffffffffffffffffffffffffffffffffffffff169050600073ffffffffffffffffffffffffffffffffffffffff168173ffffffffffffffffffffffffffffffffffffffff16141561117f576040517f08c379a000000000000000000000000000000000000000000000000000000000815260040161117690614d2b565b60405180910390fd5b80915050919050565b60008073ffffffffffffffffffffffffffffffffffffffff168273ffffffffffffffffffffffffffffffffffffffff1614156111f9576040517f08c379a00000000000000000000000000000000000000000000000000000000081526004016111f090614dbd565b60405180910390fd5b600360008373ffffffffffffffffffffffffffffffffffffffff1673ffffffffffffffffffffffffffffffffffffffff168152602001908152602001600020549050919050565b611248612db9565b73ffffffffffffffffffffffffffffffffffffffff166112666115e7565b73ffffffffffffffffffffffffffffffffffffffff16146112bc576040517f08c379a00000000000000000000000000000000000000000000000000000000081526004016112b390614bad565b60405180910390fd5b6112c660006131b4565b565b60606008805480602002602001604051908101604052809291908181526020016000905b8282101561146a57838290600052602060002090600602016040518060c001604052908160008201548152602001600182018054611329906148be565b80601f0160208091040260200160405190810160405280929190818152602001828054611355906148be565b80156113a25780601f10611377576101008083540402835291602001916113a2565b820191906000526020600020905b81548152906001019060200180831161138557829003601f168201915b505050505081526020016002820180546113bb906148be565b80601f01602080910402602001604051908101604052809291908181526020018280546113e7906148be565b80156114345780601f1061140957610100808354040283529160200191611434565b820191906000526020600020905b81548152906001019060200180831161141757829003601f168201915b505050505081526020016003820154815260200160048201548152602001600582015481525050815260200190600101906112ec565b50505050905090565b600b6020528060005260406000206000915090505481565b611493613cd1565b600d6040518060a00160405290816000820180546114b0906148be565b80601f01602080910402602001604051908101604052809291908181526020018280546114dc906148be565b80156115295780601f106114fe57610100808354040283529160200191611529565b820191906000526020600020905b81548152906001019060200180831161150c57829003601f168201915b50505050508152602001600182018054611542906148be565b80601f016020809104026020016040519081016040528092919081815260200182805461156e906148be565b80156115bb5780601f10611590576101008083540402835291602001916115bb565b820191906000526020600020905b81548152906001019060200180831161159e57829003601f168201915b505050505081526020016002820154815260200160038201548152602001600482015481525050905090565b6000600660009054906101000a900473ffffffffffffffffffffffffffffffffffffffff16905090565b606060018054611620906148be565b80601f016020809104026020016040519081016040528092919081815260200182805461164c906148be565b80156116995780601f1061166e57610100808354040283529160200191611699565b820191906000526020600020905b81548152906001019060200180831161167c57829003601f168201915b5050505050905090565b600a6020528060005260406000206000915090508060000154908060010180546116cc906148be565b80601f01602080910402602001604051908101604052809291908181526020018280546116f8906148be565b80156117455780601f1061171a57610100808354040283529160200191611745565b820191906000526020600020905b81548152906001019060200180831161172857829003601f168201915b50505050509080600201805461175a906148be565b80601f0160208091040260200160405190810160405280929190818152602001828054611786906148be565b80156117d35780601f106117a8576101008083540402835291602001916117d3565b820191906000526020600020905b8154815290600101906020018083116117b657829003601f168201915b5050505050908060030154908060040154908060050154905086565b6118016117fa612db9565b838361327a565b5050565b6000600b60003373ffffffffffffffffffffffffffffffffffffffff1673ffffffffffffffffffffffffffffffffffffffff1681526020019081526020016000205490506000600a6000838152602001908152602001600020905060008160030154116118a7576040517f08c379a000000000000000000000000000000000000000000000000000000000815260040161189e90614e29565b60405180910390fd5b6000600d60020154116118ef576040517f08c379a00000000000000000000000000000000000000000000000000000000081526004016118e690614e95565b60405180910390fd5b600d600401548160030154111561192257600d60040154816003015461191591906147ef565b816003018190555061192d565b600081600301819055505b6000600c60003373ffffffffffffffffffffffffffffffffffffffff1673ffffffffffffffffffffffffffffffffffffffff1681526020019081526020016000205490506000600a600083815260200190815260200160002090508260050154600d6002015411156119cb5780600501548360050154600d600201546119b391906147ef565b6119bd91906147ef565b600d600201819055506119d7565b6000600d600201819055505b611a8f6040518060600160405280603c8152602001615b5e603c9139846001018054611a02906148be565b80601f0160208091040260200160405190810160405280929190818152602001828054611a2e906148be565b8015611a7b5780601f10611a5057610100808354040283529160200191611a7b565b820191906000526020600020905b815481529060010190602001808311611a5e57829003601f168201915b5050505050856003015486600501546133e7565b611b676040518060400160405280601e81526020017f496e7661646f722025732068617320257320485020616e642025732041440000815250600d6000018054611ad8906148be565b80601f0160208091040260200160405190810160405280929190818152602001828054611b04906148be565b8015611b515780601f10611b2657610100808354040283529160200191611b51565b820191906000526020600020905b815481529060010190602001808311611b3457829003601f168201915b5050505050600d60020154600d600401546133e7565b7f838ab28464562786a6c4ab2311964b82fa60bd9b14aa7e856af1f3f18d41a414600d600201548460030154604051611ba19291906148f0565b60405180910390a150505050565b600c6020528060005260406000206000915090505481565b611bd8611bd2612db9565b83612e7a565b611c17576040517f08c379a0000000000000000000000000000000000000000000000000000000008152600401611c0e90614b41565b60405180910390fd5b611c2384848484613489565b50505050565b611c31613c9b565b6000600c60003373ffffffffffffffffffffffffffffffffffffffff1673ffffffffffffffffffffffffffffffffffffffff1681526020019081526020016000205490506000811115611df057600a60008281526020019081526020016000206040518060c001604052908160008201548152602001600182018054611cb6906148be565b80601f0160208091040260200160405190810160405280929190818152602001828054611ce2906148be565b8015611d2f5780601f10611d0457610100808354040283529160200191611d2f565b820191906000526020600020905b815481529060010190602001808311611d1257829003601f168201915b50505050508152602001600282018054611d48906148be565b80601f0160208091040260200160405190810160405280929190818152602001828054611d74906148be565b8015611dc15780601f10611d9657610100808354040283529160200191611dc1565b820191906000526020600020905b815481529060010190602001808311611da457829003601f168201915b505050505081526020016003820154815260200160048201548152602001600582015481525050915050611dfe565b611df8613c9b565b80925050505b90565b6000611e0d60076134e5565b9050611e196007612b92565b611e2333826134f3565b6040518060c0016040528083815260200160098481548110611e4857611e47614eb5565b5b90600052602060002090600602016001018054611e64906148be565b80601f0160208091040260200160405190810160405280929190818152602001828054611e90906148be565b8015611edd5780601f10611eb257610100808354040283529160200191611edd565b820191906000526020600020905b815481529060010190602001808311611ec057829003601f168201915b5050505050815260200160098481548110611efb57611efa614eb5565b5b90600052602060002090600602016002018054611f17906148be565b80601f0160208091040260200160405190810160405280929190818152602001828054611f43906148be565b8015611f905780601f10611f6557610100808354040283529160200191611f90565b820191906000526020600020905b815481529060010190602001808311611f7357829003601f168201915b5050505050815260200160098481548110611fae57611fad614eb5565b5b906000526020600020906006020160030154815260200160098481548110611fd957611fd8614eb5565b5b90600052602060002090600602016004015481526020016009848154811061200457612003614eb5565b5b906000526020600020906006020160050154815250600a6000838152602001908152602001600020600082015181600001556020820151816001019080519060200190612052929190613d00565b50604082015181600201908051906020019061206f929190613d00565b50606082015181600301556080820151816004015560a082015181600501559050506120b46040518060600160405280602e8152602001615b00602e91398284613511565b80600c60003373ffffffffffffffffffffffffffffffffffffffff1673ffffffffffffffffffffffffffffffffffffffff168152602001908152602001600020819055507fd3c6abf8d6cb7f2155e69f76c8207a2590a57de79bfaad5526013b88966c8b6e33828460405161212b93929190614ee4565b60405180910390a15050565b60606000600a60008481526020019081526020016000206040518060c001604052908160008201548152602001600182018054612173906148be565b80601f016020809104026020016040519081016040528092919081815260200182805461219f906148be565b80156121ec5780601f106121c1576101008083540402835291602001916121ec565b820191906000526020600020905b8154815290600101906020018083116121cf57829003601f168201915b50505050508152602001600282018054612205906148be565b80601f0160208091040260200160405190810160405280929190818152602001828054612231906148be565b801561227e5780601f106122535761010080835404028352916020019161227e565b820191906000526020600020905b81548152906001019060200180831161226157829003601f168201915b505050505081526020016003820154815260200160048201548152602001600582015481525050905060006122b682606001516135b0565b905060006122c783608001516135b0565b905060006122d88460a001516135b0565b9050600061231e85602001516122ed896135b0565b876040015187878760405160200161230a96959493929190615229565b604051602081830303815290604052613711565b9050600081604051602001612333919061531a565b6040516020818303038152906040529050809650505050505050919050565b600d806000018054612363906148be565b80601f016020809104026020016040519081016040528092919081815260200182805461238f906148be565b80156123dc5780601f106123b1576101008083540402835291602001916123dc565b820191906000526020600020905b8154815290600101906020018083116123bf57829003601f168201915b5050505050908060010180546123f1906148be565b80601f016020809104026020016040519081016040528092919081815260200182805461241d906148be565b801561246a5780601f1061243f5761010080835404028352916020019161246a565b820191906000526020600020905b81548152906001019060200180831161244d57829003601f168201915b5050505050908060020154908060030154908060040154905085565b60606009805480602002602001604051908101604052809291908181526020016000905b8282101561262857838290600052602060002090600602016040518060c0016040529081600082015481526020016001820180546124e7906148be565b80601f0160208091040260200160405190810160405280929190818152602001828054612513906148be565b80156125605780601f1061253557610100808354040283529160200191612560565b820191906000526020600020905b81548152906001019060200180831161254357829003601f168201915b50505050508152602001600282018054612579906148be565b80601f01602080910402602001604051908101604052809291908181526020018280546125a5906148be565b80156125f25780601f106125c7576101008083540402835291602001916125f2565b820191906000526020600020905b8154815290600101906020018083116125d557829003601f168201915b505050505081526020016003820154815260200160048201548152602001600582015481525050815260200190600101906124aa565b50505050905090565b6000600560008473ffffffffffffffffffffffffffffffffffffffff1673ffffffffffffffffffffffffffffffffffffffff16815260200190815260200160002060008373ffffffffffffffffffffffffffffffffffffffff1673ffffffffffffffffffffffffffffffffffffffff16815260200190815260200160002060009054906101000a900460ff16905092915050565b6126cd612db9565b73ffffffffffffffffffffffffffffffffffffffff166126eb6115e7565b73ffffffffffffffffffffffffffffffffffffffff1614612741576040517f08c379a000000000000000000000000000000000000000000000000000000000815260040161273890614bad565b60405180910390fd5b600073ffffffffffffffffffffffffffffffffffffffff168173ffffffffffffffffffffffffffffffffffffffff1614156127b1576040517f08c379a00000000000000000000000000000000000000000000000000000000081526004016127a8906153ae565b60405180910390fd5b6127ba816131b4565b50565b60006127c960076134e5565b90506127d56007612b92565b6127df33826134f3565b6040518060c001604052808381526020016008848154811061280457612803614eb5565b5b90600052602060002090600602016001018054612820906148be565b80601f016020809104026020016040519081016040528092919081815260200182805461284c906148be565b80156128995780601f1061286e57610100808354040283529160200191612899565b820191906000526020600020905b81548152906001019060200180831161287c57829003601f168201915b50505050508152602001600884815481106128b7576128b6614eb5565b5b906000526020600020906006020160020180546128d3906148be565b80601f01602080910402602001604051908101604052809291908181526020018280546128ff906148be565b801561294c5780601f106129215761010080835404028352916020019161294c565b820191906000526020600020905b81548152906001019060200180831161292f57829003601f168201915b505050505081526020016008848154811061296a57612969614eb5565b5b90600052602060002090600602016003015481526020016008848154811061299557612994614eb5565b5b9060005260206000209060060201600401548152602001600884815481106129c0576129bf614eb5565b5b906000526020600020906006020160050154815250600a6000838152602001908152602001600020600082015181600001556020820151816001019080519060200190612a0e929190613d00565b506040820151816002019080519060200190612a2b929190613d00565b50606082015181600301556080820151816004015560a08201518160050155905050612a706040518060600160405280602e8152602001615b00602e91398284613511565b80600b60003373ffffffffffffffffffffffffffffffffffffffff1673ffffffffffffffffffffffffffffffffffffffff168152602001908152602001600020819055507f4bc303fd457a97b4691b9af582ce71868a3d258638c8d4f8c60988a0f0bfb8cd338284604051612ae793929190614ee4565b60405180910390a15050565b612b8d838383604051602401612b0b939291906153ce565b6040516020818303038152906040527f2ced7cef000000000000000000000000000000000000000000000000000000007bffffffffffffffffffffffffffffffffffffffffffffffffffffffff19166020820180517bffffffffffffffffffffffffffffffffffffffffffffffffffffffff83818316178352505050506138a9565b505050565b6001816000016000828254019250508190555050565b60007f01ffc9a7000000000000000000000000000000000000000000000000000000007bffffffffffffffffffffffffffffffffffffffffffffffffffffffff1916827bffffffffffffffffffffffffffffffffffffffffffffffffffffffff1916149050919050565b612caa8282604051602401612c2892919061541a565b6040516020818303038152906040527f9710a9d0000000000000000000000000000000000000000000000000000000007bffffffffffffffffffffffffffffffffffffffffffffffffffffffff19166020820180517bffffffffffffffffffffffffffffffffffffffffffffffffffffffff83818316178352505050506138a9565b5050565b612d48838383604051602401612cc69392919061544a565b6040516020818303038152906040527ff362ca59000000000000000000000000000000000000000000000000000000007bffffffffffffffffffffffffffffffffffffffffffffffffffffffff19166020820180517bffffffffffffffffffffffffffffffffffffffffffffffffffffffff83818316178352505050506138a9565b505050565b60008073ffffffffffffffffffffffffffffffffffffffff166002600084815260200190815260200160002060009054906101000a900473ffffffffffffffffffffffffffffffffffffffff1673ffffffffffffffffffffffffffffffffffffffff1614159050919050565b600033905090565b816004600083815260200190815260200160002060006101000a81548173ffffffffffffffffffffffffffffffffffffffff021916908373ffffffffffffffffffffffffffffffffffffffff160217905550808273ffffffffffffffffffffffffffffffffffffffff16612e34836110d6565b73ffffffffffffffffffffffffffffffffffffffff167f8c5be1e5ebec7d5bd14f71427d1e84f3dd0314c0f7b2291e5b200ac8c7c3b92560405160405180910390a45050565b6000612e8582612d4d565b612ec4576040517f08c379a0000000000000000000000000000000000000000000000000000000008152600401612ebb90615501565b60405180910390fd5b6000612ecf836110d6565b90508073ffffffffffffffffffffffffffffffffffffffff168473ffffffffffffffffffffffffffffffffffffffff161480612f3e57508373ffffffffffffffffffffffffffffffffffffffff16612f2684610b4a565b73ffffffffffffffffffffffffffffffffffffffff16145b80612f4f5750612f4e8185612631565b5b91505092915050565b8273ffffffffffffffffffffffffffffffffffffffff16612f78826110d6565b73ffffffffffffffffffffffffffffffffffffffff1614612fce576040517f08c379a0000000000000000000000000000000000000000000000000000000008152600401612fc590615593565b60405180910390fd5b600073ffffffffffffffffffffffffffffffffffffffff168273ffffffffffffffffffffffffffffffffffffffff16141561303e576040517f08c379a000000000000000000000000000000000000000000000000000000000815260040161303590615625565b60405180910390fd5b6130498383836138d2565b613054600082612dc1565b6001600360008573ffffffffffffffffffffffffffffffffffffffff1673ffffffffffffffffffffffffffffffffffffffff16815260200190815260200160002060008282546130a491906147ef565b925050819055506001600360008473ffffffffffffffffffffffffffffffffffffffff1673ffffffffffffffffffffffffffffffffffffffff16815260200190815260200160002060008282546130fb9190615645565b92505081905550816002600083815260200190815260200160002060006101000a81548173ffffffffffffffffffffffffffffffffffffffff021916908373ffffffffffffffffffffffffffffffffffffffff160217905550808273ffffffffffffffffffffffffffffffffffffffff168473ffffffffffffffffffffffffffffffffffffffff167fddf252ad1be2c89b69c2b068fc378daa952ba7f163c4a11628f55a4df523b3ef60405160405180910390a4505050565b6000600660009054906101000a900473ffffffffffffffffffffffffffffffffffffffff16905081600660006101000a81548173ffffffffffffffffffffffffffffffffffffffff021916908373ffffffffffffffffffffffffffffffffffffffff1602179055508173ffffffffffffffffffffffffffffffffffffffff168173ffffffffffffffffffffffffffffffffffffffff167f8be0079c531659141344cd1fd0a4f28419497f9722a3daafe3b4186f6b6457e060405160405180910390a35050565b8173ffffffffffffffffffffffffffffffffffffffff168373ffffffffffffffffffffffffffffffffffffffff1614156132e9576040517f08c379a00000000000000000000000000000000000000000000000000000000081526004016132e0906156e7565b60405180910390fd5b80600560008573ffffffffffffffffffffffffffffffffffffffff1673ffffffffffffffffffffffffffffffffffffffff16815260200190815260200160002060008473ffffffffffffffffffffffffffffffffffffffff1673ffffffffffffffffffffffffffffffffffffffff16815260200190815260200160002060006101000a81548160ff0219169083151502179055508173ffffffffffffffffffffffffffffffffffffffff168373ffffffffffffffffffffffffffffffffffffffff167f17307eab39ab6107e8899845ad3d59bd9653f200f220920489ca2b5937696c31836040516133da9190613e57565b60405180910390a3505050565b613483848484846040516024016134019493929190615707565b6040516020818303038152906040527fd5cf17d0000000000000000000000000000000000000000000000000000000007bffffffffffffffffffffffffffffffffffffffffffffffffffffffff19166020820180517bffffffffffffffffffffffffffffffffffffffffffffffffffffffff83818316178352505050506138a9565b50505050565b613494848484612f58565b6134a0848484846138d7565b6134df576040517f08c379a00000000000000000000000000000000000000000000000000000000081526004016134d6906157cc565b60405180910390fd5b50505050565b600081600001549050919050565b61350d828260405180602001604052806000815250613a5f565b5050565b6135ab838383604051602401613529939291906157ec565b6040516020818303038152906040527f969cdd03000000000000000000000000000000000000000000000000000000007bffffffffffffffffffffffffffffffffffffffffffffffffffffffff19166020820180517bffffffffffffffffffffffffffffffffffffffffffffffffffffffff83818316178352505050506138a9565b505050565b606060008214156135f8576040518060400160405280600181526020017f3000000000000000000000000000000000000000000000000000000000000000815250905061370c565b600082905060005b6000821461362a5780806136139061582a565b915050600a8261362391906158a2565b9150613600565b60008167ffffffffffffffff81111561364657613645614505565b5b6040519080825280601f01601f1916602001820160405280156136785781602001600182028036833780820191505090505b5090505b600085146137055760018261369191906147ef565b9150600a856136a091906158d3565b60306136ac9190615645565b60f81b8183815181106136c2576136c1614eb5565b5b60200101907effffffffffffffffffffffffffffffffffffffffffffffffffffffffffffff1916908160001a905350600a856136fe91906158a2565b945061367c565b8093505050505b919050565b6060600082519050600081141561373a57604051806020016040528060008152509150506138a4565b6000600360028361374b9190615645565b61375591906158a2565b60046137619190614c5f565b905060006020826137729190615645565b67ffffffffffffffff81111561378b5761378a614505565b5b6040519080825280601f01601f1916602001820160405280156137bd5781602001600182028036833780820191505090505b5090506000604051806060016040528060408152602001615ac0604091399050600181016020830160005b868110156138615760038101905062ffffff818a015116603f8160121c168401518060081b905060ff603f83600c1c1686015116810190508060081b905060ff603f8360061c1686015116810190508060081b905060ff603f831686015116810190508060e01b905080845260048401935050506137e8565b50600386066001811461387b576002811461388b57613896565b613d3d60f01b6002830352613896565b603d60f81b60018303525b508484525050819450505050505b919050565b60008151905060006a636f6e736f6c652e6c6f679050602083016000808483855afa5050505050565b505050565b60006138f88473ffffffffffffffffffffffffffffffffffffffff16613aba565b15613a52578373ffffffffffffffffffffffffffffffffffffffff1663150b7a02613921612db9565b8786866040518563ffffffff1660e01b81526004016139439493929190615959565b6020604051808303816000875af192505050801561397f57506040513d601f19601f8201168201806040525081019061397c91906159ba565b60015b613a02573d80600081146139af576040519150601f19603f3d011682016040523d82523d6000602084013e6139b4565b606091505b506000815114156139fa576040517f08c379a00000000000000000000000000000000000000000000000000000000081526004016139f1906157cc565b60405180910390fd5b805181602001fd5b63150b7a0260e01b7bffffffffffffffffffffffffffffffffffffffffffffffffffffffff1916817bffffffffffffffffffffffffffffffffffffffffffffffffffffffff191614915050613a57565b600190505b949350505050565b613a698383613acd565b613a7660008484846138d7565b613ab5576040517f08c379a0000000000000000000000000000000000000000000000000000000008152600401613aac906157cc565b60405180910390fd5b505050565b600080823b905060008111915050919050565b600073ffffffffffffffffffffffffffffffffffffffff168273ffffffffffffffffffffffffffffffffffffffff161415613b3d576040517f08c379a0000000000000000000000000000000000000000000000000000000008152600401613b3490615a33565b60405180910390fd5b613b4681612d4d565b15613b86576040517f08c379a0000000000000000000000000000000000000000000000000000000008152600401613b7d90615a9f565b60405180910390fd5b613b92600083836138d2565b6001600360008473ffffffffffffffffffffffffffffffffffffffff1673ffffffffffffffffffffffffffffffffffffffff1681526020019081526020016000206000828254613be29190615645565b92505081905550816002600083815260200190815260200160002060006101000a81548173ffffffffffffffffffffffffffffffffffffffff021916908373ffffffffffffffffffffffffffffffffffffffff160217905550808273ffffffffffffffffffffffffffffffffffffffff16600073ffffffffffffffffffffffffffffffffffffffff167fddf252ad1be2c89b69c2b068fc378daa952ba7f163c4a11628f55a4df523b3ef60405160405180910390a45050565b6040518060c001604052806000815260200160608152602001606081526020016000815260200160008152602001600081525090565b6040518060a0016040528060608152602001606081526020016000815260200160008152602001600081525090565b828054613d0c906148be565b90600052602060002090601f016020900481019282613d2e5760008555613d75565b82601f10613d4757805160ff1916838001178555613d75565b82800160010185558215613d75579182015b82811115613d74578251825591602001919060010190613d59565b5b509050613d829190613d86565b5090565b5b80821115613d9f576000816000905550600101613d87565b5090565b6000604051905090565b600080fd5b600080fd5b60007fffffffff0000000000000000000000000000000000000000000000000000000082169050919050565b613dec81613db7565b8114613df757600080fd5b50565b600081359050613e0981613de3565b92915050565b600060208284031215613e2557613e24613dad565b5b6000613e3384828501613dfa565b91505092915050565b60008115159050919050565b613e5181613e3c565b82525050565b6000602082019050613e6c6000830184613e48565b92915050565b600081519050919050565b600082825260208201905092915050565b60005b83811015613eac578082015181840152602081019050613e91565b83811115613ebb576000848401525b50505050565b6000601f19601f8301169050919050565b6000613edd82613e72565b613ee78185613e7d565b9350613ef7818560208601613e8e565b613f0081613ec1565b840191505092915050565b60006020820190508181036000830152613f258184613ed2565b905092915050565b6000819050919050565b613f4081613f2d565b8114613f4b57600080fd5b50565b600081359050613f5d81613f37565b92915050565b600060208284031215613f7957613f78613dad565b5b6000613f8784828501613f4e565b91505092915050565b600073ffffffffffffffffffffffffffffffffffffffff82169050919050565b6000613fbb82613f90565b9050919050565b613fcb81613fb0565b82525050565b6000602082019050613fe66000830184613fc2565b92915050565b613ff581613fb0565b811461400057600080fd5b50565b60008135905061401281613fec565b92915050565b6000806040838503121561402f5761402e613dad565b5b600061403d85828601614003565b925050602061404e85828601613f4e565b9150509250929050565b60008060006060848603121561407157614070613dad565b5b600061407f86828701614003565b935050602061409086828701614003565b92505060406140a186828701613f4e565b9150509250925092565b6140b481613f2d565b82525050565b600082825260208201905092915050565b60006140d682613e72565b6140e081856140ba565b93506140f0818560208601613e8e565b6140f981613ec1565b840191505092915050565b600060c08301600083015161411c60008601826140ab565b506020830151848203602086015261413482826140cb565b9150506040830151848203604086015261414e82826140cb565b915050606083015161416360608601826140ab565b50608083015161417660808601826140ab565b5060a083015161418960a08601826140ab565b508091505092915050565b600060208201905081810360008301526141ae8184614104565b905092915050565b6141bf81613f2d565b82525050565b60006020820190506141da60008301846141b6565b92915050565b6000602082840312156141f6576141f5613dad565b5b600061420484828501614003565b91505092915050565b600081519050919050565b600082825260208201905092915050565b6000819050602082019050919050565b600060c08301600083015161425160008601826140ab565b506020830151848203602086015261426982826140cb565b9150506040830151848203604086015261428382826140cb565b915050606083015161429860608601826140ab565b5060808301516142ab60808601826140ab565b5060a08301516142be60a08601826140ab565b508091505092915050565b60006142d58383614239565b905092915050565b6000602082019050919050565b60006142f58261420d565b6142ff8185614218565b93508360208202850161431185614229565b8060005b8581101561434d578484038952815161432e85826142c9565b9450614339836142dd565b925060208a01995050600181019050614315565b50829750879550505050505092915050565b6000602082019050818103600083015261437981846142ea565b905092915050565b600060a083016000830151848203600086015261439e82826140cb565b915050602083015184820360208601526143b882826140cb565b91505060408301516143cd60408601826140ab565b5060608301516143e060608601826140ab565b5060808301516143f360808601826140ab565b508091505092915050565b600060208201905081810360008301526144188184614381565b905092915050565b600060c08201905061443560008301896141b6565b81810360208301526144478188613ed2565b9050818103604083015261445b8187613ed2565b905061446a60608301866141b6565b61447760808301856141b6565b61448460a08301846141b6565b979650505050505050565b61449881613e3c565b81146144a357600080fd5b50565b6000813590506144b58161448f565b92915050565b600080604083850312156144d2576144d1613dad565b5b60006144e085828601614003565b92505060206144f1858286016144a6565b9150509250929050565b600080fd5b600080fd5b7f4e487b7100000000000000000000000000000000000000000000000000000000600052604160045260246000fd5b61453d82613ec1565b810181811067ffffffffffffffff8211171561455c5761455b614505565b5b80604052505050565b600061456f613da3565b905061457b8282614534565b919050565b600067ffffffffffffffff82111561459b5761459a614505565b5b6145a482613ec1565b9050602081019050919050565b82818337600083830152505050565b60006145d36145ce84614580565b614565565b9050828152602081018484840111156145ef576145ee614500565b5b6145fa8482856145b1565b509392505050565b600082601f830112614617576146166144fb565b5b81356146278482602086016145c0565b91505092915050565b6000806000806080858703121561464a57614649613dad565b5b600061465887828801614003565b945050602061466987828801614003565b935050604061467a87828801613f4e565b925050606085013567ffffffffffffffff81111561469b5761469a613db2565b5b6146a787828801614602565b91505092959194509250565b600060a08201905081810360008301526146cd8188613ed2565b905081810360208301526146e18187613ed2565b90506146f060408301866141b6565b6146fd60608301856141b6565b61470a60808301846141b6565b9695505050505050565b6000806040838503121561472b5761472a613dad565b5b600061473985828601614003565b925050602061474a85828601614003565b9150509250929050565b7f4e6f7420656e6f7567682066756e647320746f206865616c2100000000000000600082015250565b600061478a601983613e7d565b915061479582614754565b602082019050919050565b600060208201905081810360008301526147b98161477d565b9050919050565b7f4e487b7100000000000000000000000000000000000000000000000000000000600052601160045260246000fd5b60006147fa82613f2d565b915061480583613f2d565b925082821015614818576148176147c0565b5b828203905092915050565b7f506c6179657220616c72656164792068617320746865206d6178204850210000600082015250565b6000614859601e83613e7d565b915061486482614823565b602082019050919050565b600060208201905081810360008301526148888161484c565b9050919050565b7f4e487b7100000000000000000000000000000000000000000000000000000000600052602260045260246000fd5b600060028204905060018216806148d657607f821691505b602082108114156148ea576148e961488f565b5b50919050565b600060408201905061490560008301856141b6565b61491260208301846141b6565b9392505050565b7f4552433732313a20617070726f76656420717565727920666f72206e6f6e657860008201527f697374656e7420746f6b656e0000000000000000000000000000000000000000602082015250565b6000614975602c83613e7d565b915061498082614919565b604082019050919050565b600060208201905081810360008301526149a481614968565b9050919050565b7f4552433732313a20617070726f76616c20746f2063757272656e74206f776e6560008201527f7200000000000000000000000000000000000000000000000000000000000000602082015250565b6000614a07602183613e7d565b9150614a12826149ab565b604082019050919050565b60006020820190508181036000830152614a36816149fa565b9050919050565b7f4552433732313a20617070726f76652063616c6c6572206973206e6f74206f7760008201527f6e6572206e6f7220617070726f76656420666f7220616c6c0000000000000000602082015250565b6000614a99603883613e7d565b9150614aa482614a3d565b604082019050919050565b60006020820190508181036000830152614ac881614a8c565b9050919050565b7f4552433732313a207472616e736665722063616c6c6572206973206e6f74206f60008201527f776e6572206e6f7220617070726f766564000000000000000000000000000000602082015250565b6000614b2b603183613e7d565b9150614b3682614acf565b604082019050919050565b60006020820190508181036000830152614b5a81614b1e565b9050919050565b7f4f776e61626c653a2063616c6c6572206973206e6f7420746865206f776e6572600082015250565b6000614b97602083613e7d565b9150614ba282614b61565b602082019050919050565b60006020820190508181036000830152614bc681614b8a565b9050919050565b7f53656e64657220646f6573206e6f74206861766520616e206e6674206d696e7460008201527f65642e0000000000000000000000000000000000000000000000000000000000602082015250565b6000614c29602383613e7d565b9150614c3482614bcd565b604082019050919050565b60006020820190508181036000830152614c5881614c1c565b9050919050565b6000614c6a82613f2d565b9150614c7583613f2d565b9250817fffffffffffffffffffffffffffffffffffffffffffffffffffffffffffffffff0483118215151615614cae57614cad6147c0565b5b828202905092915050565b7f4552433732313a206f776e657220717565727920666f72206e6f6e657869737460008201527f656e7420746f6b656e0000000000000000000000000000000000000000000000602082015250565b6000614d15602983613e7d565b9150614d2082614cb9565b604082019050919050565b60006020820190508181036000830152614d4481614d08565b9050919050565b7f4552433732313a2062616c616e636520717565727920666f7220746865207a6560008201527f726f206164647265737300000000000000000000000000000000000000000000602082015250565b6000614da7602a83613e7d565b9150614db282614d4b565b604082019050919050565b60006020820190508181036000830152614dd681614d9a565b9050919050565b7f506c617965722069732064656164210000000000000000000000000000000000600082015250565b6000614e13600f83613e7d565b9150614e1e82614ddd565b602082019050919050565b60006020820190508181036000830152614e4281614e06565b9050919050565b7f496e7661646f722077617320616c726561647920646566657465642100000000600082015250565b6000614e7f601c83613e7d565b9150614e8a82614e49565b602082019050919050565b60006020820190508181036000830152614eae81614e72565b9050919050565b7f4e487b7100000000000000000000000000000000000000000000000000000000600052603260045260246000fd5b6000606082019050614ef96000830186613fc2565b614f0660208301856141b6565b614f1360408301846141b6565b949350505050565b600081905092915050565b7f7b226e616d65223a202200000000000000000000000000000000000000000000600082015250565b6000614f5c600a83614f1b565b9150614f6782614f26565b600a82019050919050565b6000614f7d82613e72565b614f878185614f1b565b9350614f97818560208601613e8e565b80840191505092915050565b7f202d2d204e465420233a20000000000000000000000000000000000000000000600082015250565b6000614fd9600b83614f1b565b9150614fe482614fa3565b600b82019050919050565b7f222c20226465736372697074696f6e223a20225468697320697320616e204e4660008201527f54207468617420656d706f77657273207468652070656f706c65206f6620506c60208201527f616e657420456172746820746f20646566656e6420697421222c2022696d616760408201527f65223a2022000000000000000000000000000000000000000000000000000000606082015250565b6000615097606583614f1b565b91506150a282614fef565b606582019050919050565b7f222c202261747472696275746573223a205b207b202274726169745f7479706560008201527f223a20224865616c746820506f696e7473222c202276616c7565223a20000000602082015250565b6000615109603d83614f1b565b9150615114826150ad565b603d82019050919050565b7f2c20226d61785f76616c7565223a000000000000000000000000000000000000600082015250565b6000615155600e83614f1b565b91506151608261511f565b600e82019050919050565b7f7d2c207b202274726169745f74797065223a202241747461636b2044616d616760008201527f65222c202276616c7565223a2000000000000000000000000000000000000000602082015250565b60006151c7602d83614f1b565b91506151d28261516b565b602d82019050919050565b7f7d205d7d00000000000000000000000000000000000000000000000000000000600082015250565b6000615213600483614f1b565b915061521e826151dd565b600482019050919050565b600061523482614f4f565b91506152408289614f72565b915061524b82614fcc565b91506152578288614f72565b91506152628261508a565b915061526e8287614f72565b9150615279826150fc565b91506152858286614f72565b915061529082615148565b915061529c8285614f72565b91506152a7826151ba565b91506152b38284614f72565b91506152be82615206565b9150819050979650505050505050565b7f646174613a6170706c69636174696f6e2f6a736f6e3b6261736536342c000000600082015250565b6000615304601d83614f1b565b915061530f826152ce565b601d82019050919050565b6000615325826152f7565b91506153318284614f72565b915081905092915050565b7f4f776e61626c653a206e6577206f776e657220697320746865207a65726f206160008201527f6464726573730000000000000000000000000000000000000000000000000000602082015250565b6000615398602683613e7d565b91506153a38261533c565b604082019050919050565b600060208201905081810360008301526153c78161538b565b9050919050565b600060608201905081810360008301526153e88186613ed2565b905081810360208301526153fc8185613ed2565b905081810360408301526154108184613ed2565b9050949350505050565b600060408201905081810360008301526154348185613ed2565b905061544360208301846141b6565b9392505050565b600060608201905081810360008301526154648186613ed2565b905081810360208301526154788185613ed2565b905061548760408301846141b6565b949350505050565b7f4552433732313a206f70657261746f7220717565727920666f72206e6f6e657860008201527f697374656e7420746f6b656e0000000000000000000000000000000000000000602082015250565b60006154eb602c83613e7d565b91506154f68261548f565b604082019050919050565b6000602082019050818103600083015261551a816154de565b9050919050565b7f4552433732313a207472616e73666572206f6620746f6b656e2074686174206960008201527f73206e6f74206f776e0000000000000000000000000000000000000000000000602082015250565b600061557d602983613e7d565b915061558882615521565b604082019050919050565b600060208201905081810360008301526155ac81615570565b9050919050565b7f4552433732313a207472616e7366657220746f20746865207a65726f2061646460008201527f7265737300000000000000000000000000000000000000000000000000000000602082015250565b600061560f602483613e7d565b915061561a826155b3565b604082019050919050565b6000602082019050818103600083015261563e81615602565b9050919050565b600061565082613f2d565b915061565b83613f2d565b9250827fffffffffffffffffffffffffffffffffffffffffffffffffffffffffffffffff038211156156905761568f6147c0565b5b828201905092915050565b7f4552433732313a20617070726f766520746f2063616c6c657200000000000000600082015250565b60006156d1601983613e7d565b91506156dc8261569b565b602082019050919050565b60006020820190508181036000830152615700816156c4565b9050919050565b600060808201905081810360008301526157218187613ed2565b905081810360208301526157358186613ed2565b905061574460408301856141b6565b61575160608301846141b6565b95945050505050565b7f4552433732313a207472616e7366657220746f206e6f6e20455243373231526560008201527f63656976657220696d706c656d656e7465720000000000000000000000000000602082015250565b60006157b6603283613e7d565b91506157c18261575a565b604082019050919050565b600060208201905081810360008301526157e5816157a9565b9050919050565b600060608201905081810360008301526158068186613ed2565b905061581560208301856141b6565b61582260408301846141b6565b949350505050565b600061583582613f2d565b91507fffffffffffffffffffffffffffffffffffffffffffffffffffffffffffffffff821415615868576158676147c0565b5b600182019050919050565b7f4e487b7100000000000000000000000000000000000000000000000000000000600052601260045260246000fd5b60006158ad82613f2d565b91506158b883613f2d565b9250826158c8576158c7615873565b5b828204905092915050565b60006158de82613f2d565b91506158e983613f2d565b9250826158f9576158f8615873565b5b828206905092915050565b600081519050919050565b600082825260208201905092915050565b600061592b82615904565b615935818561590f565b9350615945818560208601613e8e565b61594e81613ec1565b840191505092915050565b600060808201905061596e6000830187613fc2565b61597b6020830186613fc2565b61598860408301856141b6565b818103606083015261599a8184615920565b905095945050505050565b6000815190506159b481613de3565b92915050565b6000602082840312156159d0576159cf613dad565b5b60006159de848285016159a5565b91505092915050565b7f4552433732313a206d696e7420746f20746865207a65726f2061646472657373600082015250565b6000615a1d602083613e7d565b9150615a28826159e7565b602082019050919050565b60006020820190508181036000830152615a4c81615a10565b9050919050565b7f4552433732313a20746f6b656e20616c7265616479206d696e74656400000000600082015250565b6000615a89601c83613e7d565b9150615a9482615a53565b602082019050919050565b60006020820190508181036000830152615ab881615a7c565b905091905056fe4142434445464748494a4b4c4d4e4f505152535455565758595a6162636465666768696a6b6c6d6e6f707172737475767778797a303132333435363738392b2f4d696e746564204e465420772f20746f6b656e496420257320616e6420636861726163746572496e6465782025730a506c6179657220772f2063686172616374657220257320776173206865616c656420616e64206861732025732048500a506c6179657220772f206368617261637465722025732061626f757420746f2061747461636b2e2048617320257320485020616e64202573204144a2646970667358221220b5c7bccb990fa66f578688549672141980ee1b094b233b7a22c6671fde8b105064736f6c634300080c0033574541504f4e5f4e414d453a2025732c20574541504f4e5f494d4147455f5552493a202573",
  "linkReferences": {},
  "deployedLinkReferences": {}
}