{
  "_format": "hh-sol-artifact-1",
  "contractName": "Invasion",
  "sourceName": "contracts/Invasion.sol",
  "abi": [
    {
      "inputs": [
        {
          "internalType": "string[]",
          "name": "characterNames",
          "type": "string[]"
        },
        {
          "internalType": "string[]",
          "name": "characterImageURIs",
          "type": "string[]"
        },
        {
          "internalType": "uint256[]",
          "name": "characterHp",
          "type": "uint256[]"
        },
        {
          "internalType": "uint256[]",
          "name": "characterAttackDmg",
          "type": "uint256[]"
        },
        {
          "internalType": "string",
          "name": "invadorName",
          "type": "string"
        },
        {
          "internalType": "string",
          "name": "invadorImageURI",
          "type": "string"
        },
        {
          "internalType": "uint256",
          "name": "invadorHp",
          "type": "uint256"
        },
        {
          "internalType": "uint256",
          "name": "invadorAttackDamage",
          "type": "uint256"
        }
      ],
      "stateMutability": "nonpayable",
      "type": "constructor"
    },
    {
      "anonymous": false,
      "inputs": [
        {
          "indexed": true,
          "internalType": "address",
          "name": "owner",
          "type": "address"
        },
        {
          "indexed": true,
          "internalType": "address",
          "name": "approved",
          "type": "address"
        },
        {
          "indexed": true,
          "internalType": "uint256",
          "name": "tokenId",
          "type": "uint256"
        }
      ],
      "name": "Approval",
      "type": "event"
    },
    {
      "anonymous": false,
      "inputs": [
        {
          "indexed": true,
          "internalType": "address",
          "name": "owner",
          "type": "address"
        },
        {
          "indexed": true,
          "internalType": "address",
          "name": "operator",
          "type": "address"
        },
        {
          "indexed": false,
          "internalType": "bool",
          "name": "approved",
          "type": "bool"
        }
      ],
      "name": "ApprovalForAll",
      "type": "event"
    },
    {
      "anonymous": false,
      "inputs": [
        {
          "indexed": false,
          "internalType": "uint256",
          "name": "newInvadorHp",
          "type": "uint256"
        },
        {
          "indexed": false,
          "internalType": "uint256",
          "name": "newPlayerHp",
          "type": "uint256"
        }
      ],
      "name": "AttackComplete",
      "type": "event"
    },
    {
      "anonymous": false,
      "inputs": [
        {
          "indexed": false,
          "internalType": "address",
          "name": "sender",
          "type": "address"
        },
        {
          "indexed": false,
          "internalType": "uint256",
          "name": "tokenId",
          "type": "uint256"
        },
        {
          "indexed": false,
          "internalType": "uint256",
          "name": "characterIndex",
          "type": "uint256"
        }
      ],
      "name": "CharacterNFTMinted",
      "type": "event"
    },
    {
      "anonymous": false,
      "inputs": [
        {
          "indexed": false,
          "internalType": "uint256",
          "name": "playerIndex",
          "type": "uint256"
        },
        {
          "indexed": false,
          "internalType": "uint256",
          "name": "playerHp",
          "type": "uint256"
        }
      ],
      "name": "HealComplete",
      "type": "event"
    },
    {
      "anonymous": false,
      "inputs": [
        {
          "indexed": true,
          "internalType": "address",
          "name": "previousOwner",
          "type": "address"
        },
        {
          "indexed": true,
          "internalType": "address",
          "name": "newOwner",
          "type": "address"
        }
      ],
      "name": "OwnershipTransferred",
      "type": "event"
    },
    {
      "anonymous": false,
      "inputs": [
        {
          "indexed": true,
          "internalType": "address",
          "name": "from",
          "type": "address"
        },
        {
          "indexed": true,
          "internalType": "address",
          "name": "to",
          "type": "address"
        },
        {
          "indexed": true,
          "internalType": "uint256",
          "name": "tokenId",
          "type": "uint256"
        }
      ],
      "name": "Transfer",
      "type": "event"
    },
    {
      "inputs": [
        {
          "internalType": "address",
          "name": "to",
          "type": "address"
        },
        {
          "internalType": "uint256",
          "name": "tokenId",
          "type": "uint256"
        }
      ],
      "name": "approve",
      "outputs": [],
      "stateMutability": "nonpayable",
      "type": "function"
    },
    {
      "inputs": [],
      "name": "attackInvador",
      "outputs": [],
      "stateMutability": "nonpayable",
      "type": "function"
    },
    {
      "inputs": [
        {
          "internalType": "address",
          "name": "owner",
          "type": "address"
        }
      ],
      "name": "balanceOf",
      "outputs": [
        {
          "internalType": "uint256",
          "name": "",
          "type": "uint256"
        }
      ],
      "stateMutability": "view",
      "type": "function"
    },
    {
      "inputs": [],
      "name": "checkIfUserHasNFT",
      "outputs": [
        {
          "components": [
            {
              "internalType": "uint256",
              "name": "characterIndex",
              "type": "uint256"
            },
            {
              "internalType": "string",
              "name": "name",
              "type": "string"
            },
            {
              "internalType": "string",
              "name": "imageURI",
              "type": "string"
            },
            {
              "internalType": "uint256",
              "name": "hp",
              "type": "uint256"
            },
            {
              "internalType": "uint256",
              "name": "maxHp",
              "type": "uint256"
            },
            {
              "internalType": "uint256",
              "name": "attackDamage",
              "type": "uint256"
            }
          ],
          "internalType": "struct CharacterAttributes",
          "name": "",
          "type": "tuple"
        }
      ],
      "stateMutability": "view",
      "type": "function"
    },
    {
      "inputs": [
        {
          "internalType": "uint256",
          "name": "tokenId",
          "type": "uint256"
        }
      ],
      "name": "getApproved",
      "outputs": [
        {
          "internalType": "address",
          "name": "",
          "type": "address"
        }
      ],
      "stateMutability": "view",
      "type": "function"
    },
    {
      "inputs": [],
      "name": "getDefaultCharacters",
      "outputs": [
        {
          "components": [
            {
              "internalType": "uint256",
              "name": "characterIndex",
              "type": "uint256"
            },
            {
              "internalType": "string",
              "name": "name",
              "type": "string"
            },
            {
              "internalType": "string",
              "name": "imageURI",
              "type": "string"
            },
            {
              "internalType": "uint256",
              "name": "hp",
              "type": "uint256"
            },
            {
              "internalType": "uint256",
              "name": "maxHp",
              "type": "uint256"
            },
            {
              "internalType": "uint256",
              "name": "attackDamage",
              "type": "uint256"
            }
          ],
          "internalType": "struct CharacterAttributes[]",
          "name": "",
          "type": "tuple[]"
        }
      ],
      "stateMutability": "view",
      "type": "function"
    },
    {
      "inputs": [],
      "name": "getInvador",
      "outputs": [
        {
          "components": [
            {
              "internalType": "string",
              "name": "name",
              "type": "string"
            },
            {
              "internalType": "string",
              "name": "imageURI",
              "type": "string"
            },
            {
              "internalType": "uint256",
              "name": "hp",
              "type": "uint256"
            },
            {
              "internalType": "uint256",
              "name": "maxHp",
              "type": "uint256"
            },
            {
              "internalType": "uint256",
              "name": "attackDamage",
              "type": "uint256"
            }
          ],
          "internalType": "struct Invador",
          "name": "",
          "type": "tuple"
        }
      ],
      "stateMutability": "view",
      "type": "function"
    },
    {
      "inputs": [],
      "name": "heal",
      "outputs": [],
      "stateMutability": "payable",
      "type": "function"
    },
    {
      "inputs": [],
      "name": "healCost",
      "outputs": [
        {
          "internalType": "uint256",
          "name": "",
          "type": "uint256"
        }
      ],
      "stateMutability": "view",
      "type": "function"
    },
    {
      "inputs": [],
      "name": "invador",
      "outputs": [
        {
          "internalType": "string",
          "name": "name",
          "type": "string"
        },
        {
          "internalType": "string",
          "name": "imageURI",
          "type": "string"
        },
        {
          "internalType": "uint256",
          "name": "hp",
          "type": "uint256"
        },
        {
          "internalType": "uint256",
          "name": "maxHp",
          "type": "uint256"
        },
        {
          "internalType": "uint256",
          "name": "attackDamage",
          "type": "uint256"
        }
      ],
      "stateMutability": "view",
      "type": "function"
    },
    {
      "inputs": [
        {
          "internalType": "address",
          "name": "owner",
          "type": "address"
        },
        {
          "internalType": "address",
          "name": "operator",
          "type": "address"
        }
      ],
      "name": "isApprovedForAll",
      "outputs": [
        {
          "internalType": "bool",
          "name": "",
          "type": "bool"
        }
      ],
      "stateMutability": "view",
      "type": "function"
    },
    {
      "inputs": [
        {
          "internalType": "uint256",
          "name": "_characterIndex",
          "type": "uint256"
        }
      ],
      "name": "mintCharacterNFT",
      "outputs": [],
      "stateMutability": "nonpayable",
      "type": "function"
    },
    {
      "inputs": [],
      "name": "name",
      "outputs": [
        {
          "internalType": "string",
          "name": "",
          "type": "string"
        }
      ],
      "stateMutability": "view",
      "type": "function"
    },
    {
      "inputs": [
        {
          "internalType": "uint256",
          "name": "",
          "type": "uint256"
        }
      ],
      "name": "nftHolderAttributes",
      "outputs": [
        {
          "internalType": "uint256",
          "name": "characterIndex",
          "type": "uint256"
        },
        {
          "internalType": "string",
          "name": "name",
          "type": "string"
        },
        {
          "internalType": "string",
          "name": "imageURI",
          "type": "string"
        },
        {
          "internalType": "uint256",
          "name": "hp",
          "type": "uint256"
        },
        {
          "internalType": "uint256",
          "name": "maxHp",
          "type": "uint256"
        },
        {
          "internalType": "uint256",
          "name": "attackDamage",
          "type": "uint256"
        }
      ],
      "stateMutability": "view",
      "type": "function"
    },
    {
      "inputs": [
        {
          "internalType": "address",
          "name": "",
          "type": "address"
        }
      ],
      "name": "nftHolders",
      "outputs": [
        {
          "internalType": "uint256",
          "name": "",
          "type": "uint256"
        }
      ],
      "stateMutability": "view",
      "type": "function"
    },
    {
      "inputs": [],
      "name": "owner",
      "outputs": [
        {
          "internalType": "address",
          "name": "",
          "type": "address"
        }
      ],
      "stateMutability": "view",
      "type": "function"
    },
    {
      "inputs": [
        {
          "internalType": "uint256",
          "name": "tokenId",
          "type": "uint256"
        }
      ],
      "name": "ownerOf",
      "outputs": [
        {
          "internalType": "address",
          "name": "",
          "type": "address"
        }
      ],
      "stateMutability": "view",
      "type": "function"
    },
    {
      "inputs": [],
      "name": "renounceOwnership",
      "outputs": [],
      "stateMutability": "nonpayable",
      "type": "function"
    },
    {
      "inputs": [
        {
          "internalType": "address",
          "name": "from",
          "type": "address"
        },
        {
          "internalType": "address",
          "name": "to",
          "type": "address"
        },
        {
          "internalType": "uint256",
          "name": "tokenId",
          "type": "uint256"
        }
      ],
      "name": "safeTransferFrom",
      "outputs": [],
      "stateMutability": "nonpayable",
      "type": "function"
    },
    {
      "inputs": [
        {
          "internalType": "address",
          "name": "from",
          "type": "address"
        },
        {
          "internalType": "address",
          "name": "to",
          "type": "address"
        },
        {
          "internalType": "uint256",
          "name": "tokenId",
          "type": "uint256"
        },
        {
          "internalType": "bytes",
          "name": "_data",
          "type": "bytes"
        }
      ],
      "name": "safeTransferFrom",
      "outputs": [],
      "stateMutability": "nonpayable",
      "type": "function"
    },
    {
      "inputs": [
        {
          "internalType": "address",
          "name": "operator",
          "type": "address"
        },
        {
          "internalType": "bool",
          "name": "approved",
          "type": "bool"
        }
      ],
      "name": "setApprovalForAll",
      "outputs": [],
      "stateMutability": "nonpayable",
      "type": "function"
    },
    {
      "inputs": [
        {
          "internalType": "bytes4",
          "name": "interfaceId",
          "type": "bytes4"
        }
      ],
      "name": "supportsInterface",
      "outputs": [
        {
          "internalType": "bool",
          "name": "",
          "type": "bool"
        }
      ],
      "stateMutability": "view",
      "type": "function"
    },
    {
      "inputs": [],
      "name": "symbol",
      "outputs": [
        {
          "internalType": "string",
          "name": "",
          "type": "string"
        }
      ],
      "stateMutability": "view",
      "type": "function"
    },
    {
      "inputs": [
        {
          "internalType": "uint256",
          "name": "_tokenId",
          "type": "uint256"
        }
      ],
      "name": "tokenURI",
      "outputs": [
        {
          "internalType": "string",
          "name": "",
          "type": "string"
        }
      ],
      "stateMutability": "view",
      "type": "function"
    },
    {
      "inputs": [
        {
          "internalType": "address",
          "name": "from",
          "type": "address"
        },
        {
          "internalType": "address",
          "name": "to",
          "type": "address"
        },
        {
          "internalType": "uint256",
          "name": "tokenId",
          "type": "uint256"
        }
      ],
      "name": "transferFrom",
      "outputs": [],
      "stateMutability": "nonpayable",
      "type": "function"
    },
    {
      "inputs": [
        {
          "internalType": "address",
          "name": "newOwner",
          "type": "address"
        }
      ],
      "name": "transferOwnership",
      "outputs": [],
      "stateMutability": "nonpayable",
      "type": "function"
    },
    {
      "inputs": [],
      "name": "withdraw",
      "outputs": [],
      "stateMutability": "payable",
      "type": "function"
    }
  ],
  "bytecode": "0x60806040523480156200001157600080fd5b50604051620063dd380380620063dd833981810160405281019062000037919062000c5d565b6040518060400160405280600681526020017f4865726f657300000000000000000000000000000000000000000000000000008152506040518060400160405280600481526020017f4845524f000000000000000000000000000000000000000000000000000000008152508160009080519060200190620000bb92919062000803565b508060019080519060200190620000d492919062000803565b505050620000f7620000eb6200064a60201b60201c565b6200065260201b60201c565b60005b88518110156200043b5760086040518060c001604052808381526020018b84815181106200012d576200012c62000de0565b5b602002602001015181526020018a848151811062000150576200014f62000de0565b5b6020026020010151815260200189848151811062000173576200017262000de0565b5b6020026020010151815260200189848151811062000196576200019562000de0565b5b60200260200101518152602001888481518110620001b957620001b862000de0565b5b602002602001015181525090806001815401808255809150506001900390600052602060002090600602016000909190919091506000820151816000015560208201518160010190805190602001906200021592919062000803565b5060408201518160020190805190602001906200023492919062000803565b50606082015181600301556080820151816004015560a0820151816005015550506000600882815481106200026e576200026d62000de0565b5b90600052602060002090600602016040518060c001604052908160008201548152602001600182018054620002a39062000e3e565b80601f0160208091040260200160405190810160405280929190818152602001828054620002d19062000e3e565b8015620003225780601f10620002f65761010080835404028352916020019162000322565b820191906000526020600020905b8154815290600101906020018083116200030457829003601f168201915b505050505081526020016002820180546200033d9062000e3e565b80601f01602080910402602001604051908101604052809291908181526020018280546200036b9062000e3e565b8015620003bc5780601f106200039057610100808354040283529160200191620003bc565b820191906000526020600020905b8154815290600101906020018083116200039e57829003601f168201915b5050505050815260200160038201548152602001600482015481526020016005820154815250509050620004236040518060600160405280602581526020016200638b602591398260200151836060015184604001516200071860201b620022be1760201c565b5060018162000433919062000ea3565b9050620000fa565b506040518060a0016040528085815260200184815260200183815260200183815260200182815250600b60008201518160000190805190602001906200048392919062000803565b506020820151816001019080519060200190620004a292919062000803565b50604082015181600201556060820151816003015560808201518160040155905050620006256040518060600160405280602d8152602001620063b0602d9139600b6000018054620004f49062000e3e565b80601f0160208091040260200160405190810160405280929190818152602001828054620005229062000e3e565b8015620005735780601f10620005475761010080835404028352916020019162000573565b820191906000526020600020905b8154815290600101906020018083116200055557829003601f168201915b5050505050600b60020154600b6001018054620005909062000e3e565b80601f0160208091040260200160405190810160405280929190818152602001828054620005be9062000e3e565b80156200060f5780601f10620005e3576101008083540402835291602001916200060f565b820191906000526020600020905b815481529060010190602001808311620005f157829003601f168201915b50505050506200071860201b620022be1760201c565b6200063c6007620007c460201b620023601760201c565b505050505050505062000fd0565b600033905090565b6000600660009054906101000a900473ffffffffffffffffffffffffffffffffffffffff16905081600660006101000a81548173ffffffffffffffffffffffffffffffffffffffff021916908373ffffffffffffffffffffffffffffffffffffffff1602179055508173ffffffffffffffffffffffffffffffffffffffff168173ffffffffffffffffffffffffffffffffffffffff167f8be0079c531659141344cd1fd0a4f28419497f9722a3daafe3b4186f6b6457e060405160405180910390a35050565b620007be8484848460405160240162000735949392919062000f6e565b6040516020818303038152906040527f8d142cdd000000000000000000000000000000000000000000000000000000007bffffffffffffffffffffffffffffffffffffffffffffffffffffffff19166020820180517bffffffffffffffffffffffffffffffffffffffffffffffffffffffff8381831617835250505050620007da60201b60201c565b50505050565b6001816000016000828254019250508190555050565b60008151905060006a636f6e736f6c652e6c6f679050602083016000808483855afa5050505050565b828054620008119062000e3e565b90600052602060002090601f01602090048101928262000835576000855562000881565b82601f106200085057805160ff191683800117855562000881565b8280016001018555821562000881579182015b828111156200088057825182559160200191906001019062000863565b5b50905062000890919062000894565b5090565b5b80821115620008af57600081600090555060010162000895565b5090565b6000604051905090565b600080fd5b600080fd5b600080fd5b6000601f19601f8301169050919050565b7f4e487b7100000000000000000000000000000000000000000000000000000000600052604160045260246000fd5b6200091782620008cc565b810181811067ffffffffffffffff82111715620009395762000938620008dd565b5b80604052505050565b60006200094e620008b3565b90506200095c82826200090c565b919050565b600067ffffffffffffffff8211156200097f576200097e620008dd565b5b602082029050602081019050919050565b600080fd5b600080fd5b600067ffffffffffffffff821115620009b857620009b7620008dd565b5b620009c382620008cc565b9050602081019050919050565b60005b83811015620009f0578082015181840152602081019050620009d3565b8381111562000a00576000848401525b50505050565b600062000a1d62000a17846200099a565b62000942565b90508281526020810184848401111562000a3c5762000a3b62000995565b5b62000a49848285620009d0565b509392505050565b600082601f83011262000a695762000a68620008c7565b5b815162000a7b84826020860162000a06565b91505092915050565b600062000a9b62000a958462000961565b62000942565b9050808382526020820190506020840283018581111562000ac15762000ac062000990565b5b835b8181101562000b0f57805167ffffffffffffffff81111562000aea5762000ae9620008c7565b5b80860162000af9898262000a51565b8552602085019450505060208101905062000ac3565b5050509392505050565b600082601f83011262000b315762000b30620008c7565b5b815162000b4384826020860162000a84565b91505092915050565b600067ffffffffffffffff82111562000b6a5762000b69620008dd565b5b602082029050602081019050919050565b6000819050919050565b62000b908162000b7b565b811462000b9c57600080fd5b50565b60008151905062000bb08162000b85565b92915050565b600062000bcd62000bc78462000b4c565b62000942565b9050808382526020820190506020840283018581111562000bf35762000bf262000990565b5b835b8181101562000c20578062000c0b888262000b9f565b84526020840193505060208101905062000bf5565b5050509392505050565b600082601f83011262000c425762000c41620008c7565b5b815162000c5484826020860162000bb6565b91505092915050565b600080600080600080600080610100898b03121562000c815762000c80620008bd565b5b600089015167ffffffffffffffff81111562000ca25762000ca1620008c2565b5b62000cb08b828c0162000b19565b985050602089015167ffffffffffffffff81111562000cd45762000cd3620008c2565b5b62000ce28b828c0162000b19565b975050604089015167ffffffffffffffff81111562000d065762000d05620008c2565b5b62000d148b828c0162000c2a565b965050606089015167ffffffffffffffff81111562000d385762000d37620008c2565b5b62000d468b828c0162000c2a565b955050608089015167ffffffffffffffff81111562000d6a5762000d69620008c2565b5b62000d788b828c0162000a51565b94505060a089015167ffffffffffffffff81111562000d9c5762000d9b620008c2565b5b62000daa8b828c0162000a51565b93505060c062000dbd8b828c0162000b9f565b92505060e062000dd08b828c0162000b9f565b9150509295985092959890939650565b7f4e487b7100000000000000000000000000000000000000000000000000000000600052603260045260246000fd5b7f4e487b7100000000000000000000000000000000000000000000000000000000600052602260045260246000fd5b6000600282049050600182168062000e5757607f821691505b6020821081141562000e6e5762000e6d62000e0f565b5b50919050565b7f4e487b7100000000000000000000000000000000000000000000000000000000600052601160045260246000fd5b600062000eb08262000b7b565b915062000ebd8362000b7b565b9250827fffffffffffffffffffffffffffffffffffffffffffffffffffffffffffffffff0382111562000ef55762000ef462000e74565b5b828201905092915050565b600081519050919050565b600082825260208201905092915050565b600062000f298262000f00565b62000f35818562000f0b565b935062000f47818560208601620009d0565b62000f5281620008cc565b840191505092915050565b62000f688162000b7b565b82525050565b6000608082019050818103600083015262000f8a818762000f1c565b9050818103602083015262000fa0818662000f1c565b905062000fb1604083018562000f5d565b818103606083015262000fc5818462000f1c565b905095945050505050565b6153ab8062000fe06000396000f3fe60806040526004361061019c5760003560e01c80637df124a1116100ec578063b88d4fde1161008a578063cdd07f8911610064578063cdd07f891461058d578063e985e9c5146105bc578063f2fde38b146105f9578063f8b81ef7146106225761019c565b8063b88d4fde146104fc578063c87b56dd14610525578063c8cf27f4146105625761019c565b806395d89b41116100c657806395d89b411461044f57806398da4c951461047a578063a22cb465146104bc578063a496c150146104e55761019c565b80637df124a1146103bc57806387a36c7b146103f95780638da5cb5b146104245761019c565b80633ccfd60b116101595780636352211e116101335780636352211e1461030057806370a082311461033d578063715018a61461037a57806374bce80a146103915761019c565b80633ccfd60b146102a257806342842e0e146102ac5780635fba2cea146102d55761019c565b806301ffc9a7146101a15780630434fe0b146101de57806306fdde03146101e8578063081812fc14610213578063095ea7b31461025057806323b872dd14610279575b600080fd5b3480156101ad57600080fd5b506101c860048036038101906101c391906135dd565b61064b565b6040516101d59190613625565b60405180910390f35b6101e661072d565b005b3480156101f457600080fd5b506101fd6109c0565b60405161020a91906136d9565b60405180910390f35b34801561021f57600080fd5b5061023a60048036038101906102359190613731565b610a52565b604051610247919061379f565b60405180910390f35b34801561025c57600080fd5b50610277600480360381019061027291906137e6565b610ad7565b005b34801561028557600080fd5b506102a0600480360381019061029b9190613826565b610bef565b005b6102aa610c4f565b005b3480156102b857600080fd5b506102d360048036038101906102ce9190613826565b610d14565b005b3480156102e157600080fd5b506102ea610d34565b6040516102f79190613888565b60405180910390f35b34801561030c57600080fd5b5061032760048036038101906103229190613731565b610e06565b604051610334919061379f565b60405180910390f35b34801561034957600080fd5b50610364600480360381019061035f91906138a3565b610eb8565b6040516103719190613888565b60405180910390f35b34801561038657600080fd5b5061038f610f70565b005b34801561039d57600080fd5b506103a6610ff8565b6040516103b39190613a7b565b60405180910390f35b3480156103c857600080fd5b506103e360048036038101906103de91906138a3565b6111a3565b6040516103f09190613888565b60405180910390f35b34801561040557600080fd5b5061040e6111bb565b60405161041b9190613b1a565b60405180910390f35b34801561043057600080fd5b50610439611317565b604051610446919061379f565b60405180910390f35b34801561045b57600080fd5b50610464611341565b60405161047191906136d9565b60405180910390f35b34801561048657600080fd5b506104a1600480360381019061049c9190613731565b6113d3565b6040516104b396959493929190613b3c565b60405180910390f35b3480156104c857600080fd5b506104e360048036038101906104de9190613bd7565b61151f565b005b3480156104f157600080fd5b506104fa611535565b005b34801561050857600080fd5b50610523600480360381019061051e9190613d4c565b611873565b005b34801561053157600080fd5b5061054c60048036038101906105479190613731565b6118d5565b60405161055991906136d9565b60405180910390f35b34801561056e57600080fd5b50610577611af0565b6040516105849190613e5f565b60405180910390f35b34801561059957600080fd5b506105a2611cc8565b6040516105b3959493929190613e81565b60405180910390f35b3480156105c857600080fd5b506105e360048036038101906105de9190613ee2565b611dfc565b6040516105f09190613625565b60405180910390f35b34801561060557600080fd5b50610620600480360381019061061b91906138a3565b611e90565b005b34801561062e57600080fd5b5061064960048036038101906106449190613731565b611f88565b005b60007f80ac58cd000000000000000000000000000000000000000000000000000000007bffffffffffffffffffffffffffffffffffffffffffffffffffffffff1916827bffffffffffffffffffffffffffffffffffffffffffffffffffffffff1916148061071657507f5b5e139f000000000000000000000000000000000000000000000000000000007bffffffffffffffffffffffffffffffffffffffffffffffffffffffff1916827bffffffffffffffffffffffffffffffffffffffffffffffffffffffff1916145b80610726575061072582612376565b5b9050919050565b610735610d34565b341015610777576040517f08c379a000000000000000000000000000000000000000000000000000000000815260040161076e90613f6e565b60405180910390fd5b6107b66040518060400160405280601b81526020017f56616c75652073656e7420666f72206865616c696e672025733a200000000000815250346123e0565b6000600a60003373ffffffffffffffffffffffffffffffffffffffff1673ffffffffffffffffffffffffffffffffffffffff16815260200190815260200160002054905060006009600083815260200190815260200160002090506000816003015482600401546108279190613fbd565b90506000811161086c576040517f08c379a00000000000000000000000000000000000000000000000000000000081526004016108639061403d565b60405180910390fd5b610874611317565b73ffffffffffffffffffffffffffffffffffffffff166108fc349081150290604051600060405180830381858888f193505050501580156108b9573d6000803e3d6000fd5b508160040154826003018190555061097a60405180606001604052806030815260200161530a603091398360010180546108f29061408c565b80601f016020809104026020016040519081016040528092919081815260200182805461091e9061408c565b801561096b5780601f106109405761010080835404028352916020019161096b565b820191906000526020600020905b81548152906001019060200180831161094e57829003601f168201915b5050505050846003015461247c565b7fbe48ddc4757287d79e6453c381ab1b1a1c1d18a4fdcf61bde378de226024f22c826000015483600301546040516109b39291906140be565b60405180910390a1505050565b6060600080546109cf9061408c565b80601f01602080910402602001604051908101604052809291908181526020018280546109fb9061408c565b8015610a485780601f10610a1d57610100808354040283529160200191610a48565b820191906000526020600020905b815481529060010190602001808311610a2b57829003601f168201915b5050505050905090565b6000610a5d8261251b565b610a9c576040517f08c379a0000000000000000000000000000000000000000000000000000000008152600401610a9390614159565b60405180910390fd5b6004600083815260200190815260200160002060009054906101000a900473ffffffffffffffffffffffffffffffffffffffff169050919050565b6000610ae282610e06565b90508073ffffffffffffffffffffffffffffffffffffffff168373ffffffffffffffffffffffffffffffffffffffff161415610b53576040517f08c379a0000000000000000000000000000000000000000000000000000000008152600401610b4a906141eb565b60405180910390fd5b8073ffffffffffffffffffffffffffffffffffffffff16610b72612587565b73ffffffffffffffffffffffffffffffffffffffff161480610ba15750610ba081610b9b612587565b611dfc565b5b610be0576040517f08c379a0000000000000000000000000000000000000000000000000000000008152600401610bd79061427d565b60405180910390fd5b610bea838361258f565b505050565b610c00610bfa612587565b82612648565b610c3f576040517f08c379a0000000000000000000000000000000000000000000000000000000008152600401610c369061430f565b60405180910390fd5b610c4a838383612726565b505050565b610c57612587565b73ffffffffffffffffffffffffffffffffffffffff16610c75611317565b73ffffffffffffffffffffffffffffffffffffffff1614610ccb576040517f08c379a0000000000000000000000000000000000000000000000000000000008152600401610cc29061437b565b60405180910390fd5b3373ffffffffffffffffffffffffffffffffffffffff166108fc479081150290604051600060405180830381858888f19350505050158015610d11573d6000803e3d6000fd5b50565b610d2f83838360405180602001604052806000815250611873565b505050565b600080600a60003373ffffffffffffffffffffffffffffffffffffffff1673ffffffffffffffffffffffffffffffffffffffff16815260200190815260200160002054905060008111610dbc576040517f08c379a0000000000000000000000000000000000000000000000000000000008152600401610db39061440d565b60405180910390fd5b6000600960008381526020019081526020016000209050600066038d7ea4c6800090508082600301548360040154610df49190613fbd565b610dfe919061442d565b935050505090565b6000806002600084815260200190815260200160002060009054906101000a900473ffffffffffffffffffffffffffffffffffffffff169050600073ffffffffffffffffffffffffffffffffffffffff168173ffffffffffffffffffffffffffffffffffffffff161415610eaf576040517f08c379a0000000000000000000000000000000000000000000000000000000008152600401610ea6906144f9565b60405180910390fd5b80915050919050565b60008073ffffffffffffffffffffffffffffffffffffffff168273ffffffffffffffffffffffffffffffffffffffff161415610f29576040517f08c379a0000000000000000000000000000000000000000000000000000000008152600401610f209061458b565b60405180910390fd5b600360008373ffffffffffffffffffffffffffffffffffffffff1673ffffffffffffffffffffffffffffffffffffffff168152602001908152602001600020549050919050565b610f78612587565b73ffffffffffffffffffffffffffffffffffffffff16610f96611317565b73ffffffffffffffffffffffffffffffffffffffff1614610fec576040517f08c379a0000000000000000000000000000000000000000000000000000000008152600401610fe39061437b565b60405180910390fd5b610ff66000612982565b565b60606008805480602002602001604051908101604052809291908181526020016000905b8282101561119a57838290600052602060002090600602016040518060c0016040529081600082015481526020016001820180546110599061408c565b80601f01602080910402602001604051908101604052809291908181526020018280546110859061408c565b80156110d25780601f106110a7576101008083540402835291602001916110d2565b820191906000526020600020905b8154815290600101906020018083116110b557829003601f168201915b505050505081526020016002820180546110eb9061408c565b80601f01602080910402602001604051908101604052809291908181526020018280546111179061408c565b80156111645780601f1061113957610100808354040283529160200191611164565b820191906000526020600020905b81548152906001019060200180831161114757829003601f168201915b5050505050815260200160038201548152602001600482015481526020016005820154815250508152602001906001019061101c565b50505050905090565b600a6020528060005260406000206000915090505481565b6111c3613469565b600b6040518060a00160405290816000820180546111e09061408c565b80601f016020809104026020016040519081016040528092919081815260200182805461120c9061408c565b80156112595780601f1061122e57610100808354040283529160200191611259565b820191906000526020600020905b81548152906001019060200180831161123c57829003601f168201915b505050505081526020016001820180546112729061408c565b80601f016020809104026020016040519081016040528092919081815260200182805461129e9061408c565b80156112eb5780601f106112c0576101008083540402835291602001916112eb565b820191906000526020600020905b8154815290600101906020018083116112ce57829003601f168201915b505050505081526020016002820154815260200160038201548152602001600482015481525050905090565b6000600660009054906101000a900473ffffffffffffffffffffffffffffffffffffffff16905090565b6060600180546113509061408c565b80601f016020809104026020016040519081016040528092919081815260200182805461137c9061408c565b80156113c95780601f1061139e576101008083540402835291602001916113c9565b820191906000526020600020905b8154815290600101906020018083116113ac57829003601f168201915b5050505050905090565b60096020528060005260406000206000915090508060000154908060010180546113fc9061408c565b80601f01602080910402602001604051908101604052809291908181526020018280546114289061408c565b80156114755780601f1061144a57610100808354040283529160200191611475565b820191906000526020600020905b81548152906001019060200180831161145857829003601f168201915b50505050509080600201805461148a9061408c565b80601f01602080910402602001604051908101604052809291908181526020018280546114b69061408c565b80156115035780601f106114d857610100808354040283529160200191611503565b820191906000526020600020905b8154815290600101906020018083116114e657829003601f168201915b5050505050908060030154908060040154908060050154905086565b61153161152a612587565b8383612a48565b5050565b6000600a60003373ffffffffffffffffffffffffffffffffffffffff1673ffffffffffffffffffffffffffffffffffffffff168152602001908152602001600020549050600060096000838152602001908152602001600020905060008160030154116115d7576040517f08c379a00000000000000000000000000000000000000000000000000000000081526004016115ce906145f7565b60405180910390fd5b6000600b600201541161161f576040517f08c379a000000000000000000000000000000000000000000000000000000000815260040161161690614663565b60405180910390fd5b600b600401548160030154111561165257600b6004015481600301546116459190613fbd565b816003018190555061165d565b600081600301819055505b8060050154600b600201541115611691578060050154600b600201546116839190613fbd565b600b6002018190555061169d565b6000600b600201819055505b6117556040518060600160405280603c815260200161533a603c91398260010180546116c89061408c565b80601f01602080910402602001604051908101604052809291908181526020018280546116f49061408c565b80156117415780601f1061171657610100808354040283529160200191611741565b820191906000526020600020905b81548152906001019060200180831161172457829003601f168201915b505050505083600301548460050154612bb5565b61182d6040518060400160405280601e81526020017f496e7661646f722025732068617320257320485020616e642025732041440000815250600b600001805461179e9061408c565b80601f01602080910402602001604051908101604052809291908181526020018280546117ca9061408c565b80156118175780601f106117ec57610100808354040283529160200191611817565b820191906000526020600020905b8154815290600101906020018083116117fa57829003601f168201915b5050505050600b60020154600b60040154612bb5565b7f838ab28464562786a6c4ab2311964b82fa60bd9b14aa7e856af1f3f18d41a414600b6002015482600301546040516118679291906140be565b60405180910390a15050565b61188461187e612587565b83612648565b6118c3576040517f08c379a00000000000000000000000000000000000000000000000000000000081526004016118ba9061430f565b60405180910390fd5b6118cf84848484612c57565b50505050565b60606000600960008481526020019081526020016000206040518060c0016040529081600082015481526020016001820180546119119061408c565b80601f016020809104026020016040519081016040528092919081815260200182805461193d9061408c565b801561198a5780601f1061195f5761010080835404028352916020019161198a565b820191906000526020600020905b81548152906001019060200180831161196d57829003601f168201915b505050505081526020016002820180546119a39061408c565b80601f01602080910402602001604051908101604052809291908181526020018280546119cf9061408c565b8015611a1c5780601f106119f157610100808354040283529160200191611a1c565b820191906000526020600020905b8154815290600101906020018083116119ff57829003601f168201915b50505050508152602001600382015481526020016004820154815260200160058201548152505090506000611a548260600151612cb3565b90506000611a658360800151612cb3565b90506000611a768460a00151612cb3565b90506000611abc8560200151611a8b89612cb3565b8760400151878787604051602001611aa896959493929190614991565b604051602081830303815290604052612e14565b9050600081604051602001611ad19190614a82565b6040516020818303038152906040529050809650505050505050919050565b611af8613498565b6000600a60003373ffffffffffffffffffffffffffffffffffffffff1673ffffffffffffffffffffffffffffffffffffffff1681526020019081526020016000205490506000811115611cb757600960008281526020019081526020016000206040518060c001604052908160008201548152602001600182018054611b7d9061408c565b80601f0160208091040260200160405190810160405280929190818152602001828054611ba99061408c565b8015611bf65780601f10611bcb57610100808354040283529160200191611bf6565b820191906000526020600020905b815481529060010190602001808311611bd957829003601f168201915b50505050508152602001600282018054611c0f9061408c565b80601f0160208091040260200160405190810160405280929190818152602001828054611c3b9061408c565b8015611c885780601f10611c5d57610100808354040283529160200191611c88565b820191906000526020600020905b815481529060010190602001808311611c6b57829003601f168201915b505050505081526020016003820154815260200160048201548152602001600582015481525050915050611cc5565b611cbf613498565b80925050505b90565b600b806000018054611cd99061408c565b80601f0160208091040260200160405190810160405280929190818152602001828054611d059061408c565b8015611d525780601f10611d2757610100808354040283529160200191611d52565b820191906000526020600020905b815481529060010190602001808311611d3557829003601f168201915b505050505090806001018054611d679061408c565b80601f0160208091040260200160405190810160405280929190818152602001828054611d939061408c565b8015611de05780601f10611db557610100808354040283529160200191611de0565b820191906000526020600020905b815481529060010190602001808311611dc357829003601f168201915b5050505050908060020154908060030154908060040154905085565b6000600560008473ffffffffffffffffffffffffffffffffffffffff1673ffffffffffffffffffffffffffffffffffffffff16815260200190815260200160002060008373ffffffffffffffffffffffffffffffffffffffff1673ffffffffffffffffffffffffffffffffffffffff16815260200190815260200160002060009054906101000a900460ff16905092915050565b611e98612587565b73ffffffffffffffffffffffffffffffffffffffff16611eb6611317565b73ffffffffffffffffffffffffffffffffffffffff1614611f0c576040517f08c379a0000000000000000000000000000000000000000000000000000000008152600401611f039061437b565b60405180910390fd5b600073ffffffffffffffffffffffffffffffffffffffff168173ffffffffffffffffffffffffffffffffffffffff161415611f7c576040517f08c379a0000000000000000000000000000000000000000000000000000000008152600401611f7390614b16565b60405180910390fd5b611f8581612982565b50565b6000611f946007612fac565b9050611fa06007612360565b611faa3382612fba565b6040518060c0016040528083815260200160088481548110611fcf57611fce614b36565b5b90600052602060002090600602016001018054611feb9061408c565b80601f01602080910402602001604051908101604052809291908181526020018280546120179061408c565b80156120645780601f1061203957610100808354040283529160200191612064565b820191906000526020600020905b81548152906001019060200180831161204757829003601f168201915b505050505081526020016008848154811061208257612081614b36565b5b9060005260206000209060060201600201805461209e9061408c565b80601f01602080910402602001604051908101604052809291908181526020018280546120ca9061408c565b80156121175780601f106120ec57610100808354040283529160200191612117565b820191906000526020600020905b8154815290600101906020018083116120fa57829003601f168201915b505050505081526020016008848154811061213557612134614b36565b5b9060005260206000209060060201600301548152602001600884815481106121605761215f614b36565b5b90600052602060002090600602016004015481526020016008848154811061218b5761218a614b36565b5b906000526020600020906006020160050154815250600960008381526020019081526020016000206000820151816000015560208201518160010190805190602001906121d99291906134ce565b5060408201518160020190805190602001906121f69291906134ce565b50606082015181600301556080820151816004015560a0820151816005015590505061223b6040518060600160405280602e81526020016152dc602e91398284612fd8565b80600a60003373ffffffffffffffffffffffffffffffffffffffff1673ffffffffffffffffffffffffffffffffffffffff168152602001908152602001600020819055507f4bc303fd457a97b4691b9af582ce71868a3d258638c8d4f8c60988a0f0bfb8cd3382846040516122b293929190614b65565b60405180910390a15050565b61235a848484846040516024016122d89493929190614b9c565b6040516020818303038152906040527f8d142cdd000000000000000000000000000000000000000000000000000000007bffffffffffffffffffffffffffffffffffffffffffffffffffffffff19166020820180517bffffffffffffffffffffffffffffffffffffffffffffffffffffffff8381831617835250505050613077565b50505050565b6001816000016000828254019250508190555050565b60007f01ffc9a7000000000000000000000000000000000000000000000000000000007bffffffffffffffffffffffffffffffffffffffffffffffffffffffff1916827bffffffffffffffffffffffffffffffffffffffffffffffffffffffff1916149050919050565b61247882826040516024016123f6929190614bf6565b6040516020818303038152906040527f9710a9d0000000000000000000000000000000000000000000000000000000007bffffffffffffffffffffffffffffffffffffffffffffffffffffffff19166020820180517bffffffffffffffffffffffffffffffffffffffffffffffffffffffff8381831617835250505050613077565b5050565b61251683838360405160240161249493929190614c26565b6040516020818303038152906040527ff362ca59000000000000000000000000000000000000000000000000000000007bffffffffffffffffffffffffffffffffffffffffffffffffffffffff19166020820180517bffffffffffffffffffffffffffffffffffffffffffffffffffffffff8381831617835250505050613077565b505050565b60008073ffffffffffffffffffffffffffffffffffffffff166002600084815260200190815260200160002060009054906101000a900473ffffffffffffffffffffffffffffffffffffffff1673ffffffffffffffffffffffffffffffffffffffff1614159050919050565b600033905090565b816004600083815260200190815260200160002060006101000a81548173ffffffffffffffffffffffffffffffffffffffff021916908373ffffffffffffffffffffffffffffffffffffffff160217905550808273ffffffffffffffffffffffffffffffffffffffff1661260283610e06565b73ffffffffffffffffffffffffffffffffffffffff167f8c5be1e5ebec7d5bd14f71427d1e84f3dd0314c0f7b2291e5b200ac8c7c3b92560405160405180910390a45050565b60006126538261251b565b612692576040517f08c379a000000000000000000000000000000000000000000000000000000000815260040161268990614cdd565b60405180910390fd5b600061269d83610e06565b90508073ffffffffffffffffffffffffffffffffffffffff168473ffffffffffffffffffffffffffffffffffffffff16148061270c57508373ffffffffffffffffffffffffffffffffffffffff166126f484610a52565b73ffffffffffffffffffffffffffffffffffffffff16145b8061271d575061271c8185611dfc565b5b91505092915050565b8273ffffffffffffffffffffffffffffffffffffffff1661274682610e06565b73ffffffffffffffffffffffffffffffffffffffff161461279c576040517f08c379a000000000000000000000000000000000000000000000000000000000815260040161279390614d6f565b60405180910390fd5b600073ffffffffffffffffffffffffffffffffffffffff168273ffffffffffffffffffffffffffffffffffffffff16141561280c576040517f08c379a000000000000000000000000000000000000000000000000000000000815260040161280390614e01565b60405180910390fd5b6128178383836130a0565b61282260008261258f565b6001600360008573ffffffffffffffffffffffffffffffffffffffff1673ffffffffffffffffffffffffffffffffffffffff16815260200190815260200160002060008282546128729190613fbd565b925050819055506001600360008473ffffffffffffffffffffffffffffffffffffffff1673ffffffffffffffffffffffffffffffffffffffff16815260200190815260200160002060008282546128c99190614e21565b92505081905550816002600083815260200190815260200160002060006101000a81548173ffffffffffffffffffffffffffffffffffffffff021916908373ffffffffffffffffffffffffffffffffffffffff160217905550808273ffffffffffffffffffffffffffffffffffffffff168473ffffffffffffffffffffffffffffffffffffffff167fddf252ad1be2c89b69c2b068fc378daa952ba7f163c4a11628f55a4df523b3ef60405160405180910390a4505050565b6000600660009054906101000a900473ffffffffffffffffffffffffffffffffffffffff16905081600660006101000a81548173ffffffffffffffffffffffffffffffffffffffff021916908373ffffffffffffffffffffffffffffffffffffffff1602179055508173ffffffffffffffffffffffffffffffffffffffff168173ffffffffffffffffffffffffffffffffffffffff167f8be0079c531659141344cd1fd0a4f28419497f9722a3daafe3b4186f6b6457e060405160405180910390a35050565b8173ffffffffffffffffffffffffffffffffffffffff168373ffffffffffffffffffffffffffffffffffffffff161415612ab7576040517f08c379a0000000000000000000000000000000000000000000000000000000008152600401612aae90614ec3565b60405180910390fd5b80600560008573ffffffffffffffffffffffffffffffffffffffff1673ffffffffffffffffffffffffffffffffffffffff16815260200190815260200160002060008473ffffffffffffffffffffffffffffffffffffffff1673ffffffffffffffffffffffffffffffffffffffff16815260200190815260200160002060006101000a81548160ff0219169083151502179055508173ffffffffffffffffffffffffffffffffffffffff168373ffffffffffffffffffffffffffffffffffffffff167f17307eab39ab6107e8899845ad3d59bd9653f200f220920489ca2b5937696c3183604051612ba89190613625565b60405180910390a3505050565b612c5184848484604051602401612bcf9493929190614ee3565b6040516020818303038152906040527fd5cf17d0000000000000000000000000000000000000000000000000000000007bffffffffffffffffffffffffffffffffffffffffffffffffffffffff19166020820180517bffffffffffffffffffffffffffffffffffffffffffffffffffffffff8381831617835250505050613077565b50505050565b612c62848484612726565b612c6e848484846130a5565b612cad576040517f08c379a0000000000000000000000000000000000000000000000000000000008152600401612ca490614fa8565b60405180910390fd5b50505050565b60606000821415612cfb576040518060400160405280600181526020017f30000000000000000000000000000000000000000000000000000000000000008152509050612e0f565b600082905060005b60008214612d2d578080612d1690614fc8565b915050600a82612d269190615040565b9150612d03565b60008167ffffffffffffffff811115612d4957612d48613c21565b5b6040519080825280601f01601f191660200182016040528015612d7b5781602001600182028036833780820191505090505b5090505b60008514612e0857600182612d949190613fbd565b9150600a85612da39190615071565b6030612daf9190614e21565b60f81b818381518110612dc557612dc4614b36565b5b60200101907effffffffffffffffffffffffffffffffffffffffffffffffffffffffffffff1916908160001a905350600a85612e019190615040565b9450612d7f565b8093505050505b919050565b60606000825190506000811415612e3d5760405180602001604052806000815250915050612fa7565b60006003600283612e4e9190614e21565b612e589190615040565b6004612e64919061442d565b90506000602082612e759190614e21565b67ffffffffffffffff811115612e8e57612e8d613c21565b5b6040519080825280601f01601f191660200182016040528015612ec05781602001600182028036833780820191505090505b509050600060405180606001604052806040815260200161529c604091399050600181016020830160005b86811015612f645760038101905062ffffff818a015116603f8160121c168401518060081b905060ff603f83600c1c1686015116810190508060081b905060ff603f8360061c1686015116810190508060081b905060ff603f831686015116810190508060e01b90508084526004840193505050612eeb565b506003860660018114612f7e5760028114612f8e57612f99565b613d3d60f01b6002830352612f99565b603d60f81b60018303525b508484525050819450505050505b919050565b600081600001549050919050565b612fd482826040518060200160405280600081525061322d565b5050565b613072838383604051602401612ff0939291906150a2565b6040516020818303038152906040527f969cdd03000000000000000000000000000000000000000000000000000000007bffffffffffffffffffffffffffffffffffffffffffffffffffffffff19166020820180517bffffffffffffffffffffffffffffffffffffffffffffffffffffffff8381831617835250505050613077565b505050565b60008151905060006a636f6e736f6c652e6c6f679050602083016000808483855afa5050505050565b505050565b60006130c68473ffffffffffffffffffffffffffffffffffffffff16613288565b15613220578373ffffffffffffffffffffffffffffffffffffffff1663150b7a026130ef612587565b8786866040518563ffffffff1660e01b81526004016131119493929190615135565b6020604051808303816000875af192505050801561314d57506040513d601f19601f8201168201806040525081019061314a9190615196565b60015b6131d0573d806000811461317d576040519150601f19603f3d011682016040523d82523d6000602084013e613182565b606091505b506000815114156131c8576040517f08c379a00000000000000000000000000000000000000000000000000000000081526004016131bf90614fa8565b60405180910390fd5b805181602001fd5b63150b7a0260e01b7bffffffffffffffffffffffffffffffffffffffffffffffffffffffff1916817bffffffffffffffffffffffffffffffffffffffffffffffffffffffff191614915050613225565b600190505b949350505050565b613237838361329b565b61324460008484846130a5565b613283576040517f08c379a000000000000000000000000000000000000000000000000000000000815260040161327a90614fa8565b60405180910390fd5b505050565b600080823b905060008111915050919050565b600073ffffffffffffffffffffffffffffffffffffffff168273ffffffffffffffffffffffffffffffffffffffff16141561330b576040517f08c379a00000000000000000000000000000000000000000000000000000000081526004016133029061520f565b60405180910390fd5b6133148161251b565b15613354576040517f08c379a000000000000000000000000000000000000000000000000000000000815260040161334b9061527b565b60405180910390fd5b613360600083836130a0565b6001600360008473ffffffffffffffffffffffffffffffffffffffff1673ffffffffffffffffffffffffffffffffffffffff16815260200190815260200160002060008282546133b09190614e21565b92505081905550816002600083815260200190815260200160002060006101000a81548173ffffffffffffffffffffffffffffffffffffffff021916908373ffffffffffffffffffffffffffffffffffffffff160217905550808273ffffffffffffffffffffffffffffffffffffffff16600073ffffffffffffffffffffffffffffffffffffffff167fddf252ad1be2c89b69c2b068fc378daa952ba7f163c4a11628f55a4df523b3ef60405160405180910390a45050565b6040518060a0016040528060608152602001606081526020016000815260200160008152602001600081525090565b6040518060c001604052806000815260200160608152602001606081526020016000815260200160008152602001600081525090565b8280546134da9061408c565b90600052602060002090601f0160209004810192826134fc5760008555613543565b82601f1061351557805160ff1916838001178555613543565b82800160010185558215613543579182015b82811115613542578251825591602001919060010190613527565b5b5090506135509190613554565b5090565b5b8082111561356d576000816000905550600101613555565b5090565b6000604051905090565b600080fd5b600080fd5b60007fffffffff0000000000000000000000000000000000000000000000000000000082169050919050565b6135ba81613585565b81146135c557600080fd5b50565b6000813590506135d7816135b1565b92915050565b6000602082840312156135f3576135f261357b565b5b6000613601848285016135c8565b91505092915050565b60008115159050919050565b61361f8161360a565b82525050565b600060208201905061363a6000830184613616565b92915050565b600081519050919050565b600082825260208201905092915050565b60005b8381101561367a57808201518184015260208101905061365f565b83811115613689576000848401525b50505050565b6000601f19601f8301169050919050565b60006136ab82613640565b6136b5818561364b565b93506136c581856020860161365c565b6136ce8161368f565b840191505092915050565b600060208201905081810360008301526136f381846136a0565b905092915050565b6000819050919050565b61370e816136fb565b811461371957600080fd5b50565b60008135905061372b81613705565b92915050565b6000602082840312156137475761374661357b565b5b60006137558482850161371c565b91505092915050565b600073ffffffffffffffffffffffffffffffffffffffff82169050919050565b60006137898261375e565b9050919050565b6137998161377e565b82525050565b60006020820190506137b46000830184613790565b92915050565b6137c38161377e565b81146137ce57600080fd5b50565b6000813590506137e0816137ba565b92915050565b600080604083850312156137fd576137fc61357b565b5b600061380b858286016137d1565b925050602061381c8582860161371c565b9150509250929050565b60008060006060848603121561383f5761383e61357b565b5b600061384d868287016137d1565b935050602061385e868287016137d1565b925050604061386f8682870161371c565b9150509250925092565b613882816136fb565b82525050565b600060208201905061389d6000830184613879565b92915050565b6000602082840312156138b9576138b861357b565b5b60006138c7848285016137d1565b91505092915050565b600081519050919050565b600082825260208201905092915050565b6000819050602082019050919050565b613905816136fb565b82525050565b600082825260208201905092915050565b600061392782613640565b613931818561390b565b935061394181856020860161365c565b61394a8161368f565b840191505092915050565b600060c08301600083015161396d60008601826138fc565b5060208301518482036020860152613985828261391c565b9150506040830151848203604086015261399f828261391c565b91505060608301516139b460608601826138fc565b5060808301516139c760808601826138fc565b5060a08301516139da60a08601826138fc565b508091505092915050565b60006139f18383613955565b905092915050565b6000602082019050919050565b6000613a11826138d0565b613a1b81856138db565b935083602082028501613a2d856138ec565b8060005b85811015613a695784840389528151613a4a85826139e5565b9450613a55836139f9565b925060208a01995050600181019050613a31565b50829750879550505050505092915050565b60006020820190508181036000830152613a958184613a06565b905092915050565b600060a0830160008301518482036000860152613aba828261391c565b91505060208301518482036020860152613ad4828261391c565b9150506040830151613ae960408601826138fc565b506060830151613afc60608601826138fc565b506080830151613b0f60808601826138fc565b508091505092915050565b60006020820190508181036000830152613b348184613a9d565b905092915050565b600060c082019050613b516000830189613879565b8181036020830152613b6381886136a0565b90508181036040830152613b7781876136a0565b9050613b866060830186613879565b613b936080830185613879565b613ba060a0830184613879565b979650505050505050565b613bb48161360a565b8114613bbf57600080fd5b50565b600081359050613bd181613bab565b92915050565b60008060408385031215613bee57613bed61357b565b5b6000613bfc858286016137d1565b9250506020613c0d85828601613bc2565b9150509250929050565b600080fd5b600080fd5b7f4e487b7100000000000000000000000000000000000000000000000000000000600052604160045260246000fd5b613c598261368f565b810181811067ffffffffffffffff82111715613c7857613c77613c21565b5b80604052505050565b6000613c8b613571565b9050613c978282613c50565b919050565b600067ffffffffffffffff821115613cb757613cb6613c21565b5b613cc08261368f565b9050602081019050919050565b82818337600083830152505050565b6000613cef613cea84613c9c565b613c81565b905082815260208101848484011115613d0b57613d0a613c1c565b5b613d16848285613ccd565b509392505050565b600082601f830112613d3357613d32613c17565b5b8135613d43848260208601613cdc565b91505092915050565b60008060008060808587031215613d6657613d6561357b565b5b6000613d74878288016137d1565b9450506020613d85878288016137d1565b9350506040613d968782880161371c565b925050606085013567ffffffffffffffff811115613db757613db6613580565b5b613dc387828801613d1e565b91505092959194509250565b600060c083016000830151613de760008601826138fc565b5060208301518482036020860152613dff828261391c565b91505060408301518482036040860152613e19828261391c565b9150506060830151613e2e60608601826138fc565b506080830151613e4160808601826138fc565b5060a0830151613e5460a08601826138fc565b508091505092915050565b60006020820190508181036000830152613e798184613dcf565b905092915050565b600060a0820190508181036000830152613e9b81886136a0565b90508181036020830152613eaf81876136a0565b9050613ebe6040830186613879565b613ecb6060830185613879565b613ed86080830184613879565b9695505050505050565b60008060408385031215613ef957613ef861357b565b5b6000613f07858286016137d1565b9250506020613f18858286016137d1565b9150509250929050565b7f4e6f7420656e6f7567682066756e647320746f206865616c2100000000000000600082015250565b6000613f5860198361364b565b9150613f6382613f22565b602082019050919050565b60006020820190508181036000830152613f8781613f4b565b9050919050565b7f4e487b7100000000000000000000000000000000000000000000000000000000600052601160045260246000fd5b6000613fc8826136fb565b9150613fd3836136fb565b925082821015613fe657613fe5613f8e565b5b828203905092915050565b7f506c6179657220616c72656164792068617320746865206d6178204850210000600082015250565b6000614027601e8361364b565b915061403282613ff1565b602082019050919050565b600060208201905081810360008301526140568161401a565b9050919050565b7f4e487b7100000000000000000000000000000000000000000000000000000000600052602260045260246000fd5b600060028204905060018216806140a457607f821691505b602082108114156140b8576140b761405d565b5b50919050565b60006040820190506140d36000830185613879565b6140e06020830184613879565b9392505050565b7f4552433732313a20617070726f76656420717565727920666f72206e6f6e657860008201527f697374656e7420746f6b656e0000000000000000000000000000000000000000602082015250565b6000614143602c8361364b565b915061414e826140e7565b604082019050919050565b6000602082019050818103600083015261417281614136565b9050919050565b7f4552433732313a20617070726f76616c20746f2063757272656e74206f776e6560008201527f7200000000000000000000000000000000000000000000000000000000000000602082015250565b60006141d560218361364b565b91506141e082614179565b604082019050919050565b60006020820190508181036000830152614204816141c8565b9050919050565b7f4552433732313a20617070726f76652063616c6c6572206973206e6f74206f7760008201527f6e6572206e6f7220617070726f76656420666f7220616c6c0000000000000000602082015250565b600061426760388361364b565b91506142728261420b565b604082019050919050565b600060208201905081810360008301526142968161425a565b9050919050565b7f4552433732313a207472616e736665722063616c6c6572206973206e6f74206f60008201527f776e6572206e6f7220617070726f766564000000000000000000000000000000602082015250565b60006142f960318361364b565b91506143048261429d565b604082019050919050565b60006020820190508181036000830152614328816142ec565b9050919050565b7f4f776e61626c653a2063616c6c6572206973206e6f7420746865206f776e6572600082015250565b600061436560208361364b565b91506143708261432f565b602082019050919050565b6000602082019050818103600083015261439481614358565b9050919050565b7f53656e64657220646f6573206e6f74206861766520616e206e6674206d696e7460008201527f65642e0000000000000000000000000000000000000000000000000000000000602082015250565b60006143f760238361364b565b91506144028261439b565b604082019050919050565b60006020820190508181036000830152614426816143ea565b9050919050565b6000614438826136fb565b9150614443836136fb565b9250817fffffffffffffffffffffffffffffffffffffffffffffffffffffffffffffffff048311821515161561447c5761447b613f8e565b5b828202905092915050565b7f4552433732313a206f776e657220717565727920666f72206e6f6e657869737460008201527f656e7420746f6b656e0000000000000000000000000000000000000000000000602082015250565b60006144e360298361364b565b91506144ee82614487565b604082019050919050565b60006020820190508181036000830152614512816144d6565b9050919050565b7f4552433732313a2062616c616e636520717565727920666f7220746865207a6560008201527f726f206164647265737300000000000000000000000000000000000000000000602082015250565b6000614575602a8361364b565b915061458082614519565b604082019050919050565b600060208201905081810360008301526145a481614568565b9050919050565b7f506c617965722069732064656164210000000000000000000000000000000000600082015250565b60006145e1600f8361364b565b91506145ec826145ab565b602082019050919050565b60006020820190508181036000830152614610816145d4565b9050919050565b7f496e7661646f722077617320616c726561647920646566657465642100000000600082015250565b600061464d601c8361364b565b915061465882614617565b602082019050919050565b6000602082019050818103600083015261467c81614640565b9050919050565b600081905092915050565b7f7b226e616d65223a202200000000000000000000000000000000000000000000600082015250565b60006146c4600a83614683565b91506146cf8261468e565b600a82019050919050565b60006146e582613640565b6146ef8185614683565b93506146ff81856020860161365c565b80840191505092915050565b7f202d2d204e465420233a20000000000000000000000000000000000000000000600082015250565b6000614741600b83614683565b915061474c8261470b565b600b82019050919050565b7f222c20226465736372697074696f6e223a20225468697320697320616e204e4660008201527f54207468617420656d706f77657273207468652070656f706c65206f6620506c60208201527f616e657420456172746820746f20646566656e6420697421222c2022696d616760408201527f65223a2022000000000000000000000000000000000000000000000000000000606082015250565b60006147ff606583614683565b915061480a82614757565b606582019050919050565b7f222c202261747472696275746573223a205b207b202274726169745f7479706560008201527f223a20224865616c746820506f696e7473222c202276616c7565223a20000000602082015250565b6000614871603d83614683565b915061487c82614815565b603d82019050919050565b7f2c20226d61785f76616c7565223a000000000000000000000000000000000000600082015250565b60006148bd600e83614683565b91506148c882614887565b600e82019050919050565b7f7d2c207b202274726169745f74797065223a202241747461636b2044616d616760008201527f65222c202276616c7565223a2000000000000000000000000000000000000000602082015250565b600061492f602d83614683565b915061493a826148d3565b602d82019050919050565b7f7d205d7d00000000000000000000000000000000000000000000000000000000600082015250565b600061497b600483614683565b915061498682614945565b600482019050919050565b600061499c826146b7565b91506149a882896146da565b91506149b382614734565b91506149bf82886146da565b91506149ca826147f2565b91506149d682876146da565b91506149e182614864565b91506149ed82866146da565b91506149f8826148b0565b9150614a0482856146da565b9150614a0f82614922565b9150614a1b82846146da565b9150614a268261496e565b9150819050979650505050505050565b7f646174613a6170706c69636174696f6e2f6a736f6e3b6261736536342c000000600082015250565b6000614a6c601d83614683565b9150614a7782614a36565b601d82019050919050565b6000614a8d82614a5f565b9150614a9982846146da565b915081905092915050565b7f4f776e61626c653a206e6577206f776e657220697320746865207a65726f206160008201527f6464726573730000000000000000000000000000000000000000000000000000602082015250565b6000614b0060268361364b565b9150614b0b82614aa4565b604082019050919050565b60006020820190508181036000830152614b2f81614af3565b9050919050565b7f4e487b7100000000000000000000000000000000000000000000000000000000600052603260045260246000fd5b6000606082019050614b7a6000830186613790565b614b876020830185613879565b614b946040830184613879565b949350505050565b60006080820190508181036000830152614bb681876136a0565b90508181036020830152614bca81866136a0565b9050614bd96040830185613879565b8181036060830152614beb81846136a0565b905095945050505050565b60006040820190508181036000830152614c1081856136a0565b9050614c1f6020830184613879565b9392505050565b60006060820190508181036000830152614c4081866136a0565b90508181036020830152614c5481856136a0565b9050614c636040830184613879565b949350505050565b7f4552433732313a206f70657261746f7220717565727920666f72206e6f6e657860008201527f697374656e7420746f6b656e0000000000000000000000000000000000000000602082015250565b6000614cc7602c8361364b565b9150614cd282614c6b565b604082019050919050565b60006020820190508181036000830152614cf681614cba565b9050919050565b7f4552433732313a207472616e73666572206f6620746f6b656e2074686174206960008201527f73206e6f74206f776e0000000000000000000000000000000000000000000000602082015250565b6000614d5960298361364b565b9150614d6482614cfd565b604082019050919050565b60006020820190508181036000830152614d8881614d4c565b9050919050565b7f4552433732313a207472616e7366657220746f20746865207a65726f2061646460008201527f7265737300000000000000000000000000000000000000000000000000000000602082015250565b6000614deb60248361364b565b9150614df682614d8f565b604082019050919050565b60006020820190508181036000830152614e1a81614dde565b9050919050565b6000614e2c826136fb565b9150614e37836136fb565b9250827fffffffffffffffffffffffffffffffffffffffffffffffffffffffffffffffff03821115614e6c57614e6b613f8e565b5b828201905092915050565b7f4552433732313a20617070726f766520746f2063616c6c657200000000000000600082015250565b6000614ead60198361364b565b9150614eb882614e77565b602082019050919050565b60006020820190508181036000830152614edc81614ea0565b9050919050565b60006080820190508181036000830152614efd81876136a0565b90508181036020830152614f1181866136a0565b9050614f206040830185613879565b614f2d6060830184613879565b95945050505050565b7f4552433732313a207472616e7366657220746f206e6f6e20455243373231526560008201527f63656976657220696d706c656d656e7465720000000000000000000000000000602082015250565b6000614f9260328361364b565b9150614f9d82614f36565b604082019050919050565b60006020820190508181036000830152614fc181614f85565b9050919050565b6000614fd3826136fb565b91507fffffffffffffffffffffffffffffffffffffffffffffffffffffffffffffffff82141561500657615005613f8e565b5b600182019050919050565b7f4e487b7100000000000000000000000000000000000000000000000000000000600052601260045260246000fd5b600061504b826136fb565b9150615056836136fb565b92508261506657615065615011565b5b828204905092915050565b600061507c826136fb565b9150615087836136fb565b92508261509757615096615011565b5b828206905092915050565b600060608201905081810360008301526150bc81866136a0565b90506150cb6020830185613879565b6150d86040830184613879565b949350505050565b600081519050919050565b600082825260208201905092915050565b6000615107826150e0565b61511181856150eb565b935061512181856020860161365c565b61512a8161368f565b840191505092915050565b600060808201905061514a6000830187613790565b6151576020830186613790565b6151646040830185613879565b818103606083015261517681846150fc565b905095945050505050565b600081519050615190816135b1565b92915050565b6000602082840312156151ac576151ab61357b565b5b60006151ba84828501615181565b91505092915050565b7f4552433732313a206d696e7420746f20746865207a65726f2061646472657373600082015250565b60006151f960208361364b565b9150615204826151c3565b602082019050919050565b60006020820190508181036000830152615228816151ec565b9050919050565b7f4552433732313a20746f6b656e20616c7265616479206d696e74656400000000600082015250565b6000615265601c8361364b565b91506152708261522f565b602082019050919050565b6000602082019050818103600083015261529481615258565b905091905056fe4142434445464748494a4b4c4d4e4f505152535455565758595a6162636465666768696a6b6c6d6e6f707172737475767778797a303132333435363738392b2f4d696e746564204e465420772f20746f6b656e496420257320616e6420636861726163746572496e6465782025730a506c6179657220772f2063686172616374657220257320776173206865616c656420616e64206861732025732048500a506c6179657220772f206368617261637465722025732061626f757420746f2061747461636b2e2048617320257320485020616e64202573204144a2646970667358221220aa11559cdee122830d487d8d68fe4c9d3eca5c9e4e1007f1b5cbde178c0531bc64736f6c634300080c0033446f6e6520696e697469616c697a696e6720257320772f2048502025732c20696d67202573446f6e6520696e697469616c697a696e6720696e7661646f7220257320772f2048502025732c20696d67202573",
  "linkReferences": {},
  "deployedLinkReferences": {}
}